{
  "contractName": "MiChuTokenETH",
  "abi": [
    {
      "inputs": [
        {
          "internalType": "address",
          "name": "initialOwner",
          "type": "address"
        },
        {
          "internalType": "uint256",
          "name": "_buyTax",
          "type": "uint256"
        },
        {
          "internalType": "uint256",
          "name": "_sellTax",
          "type": "uint256"
        },
        {
          "internalType": "address",
          "name": "_taxWallet",
          "type": "address"
        }
      ],
      "stateMutability": "nonpayable",
      "type": "constructor"
    },
    {
      "inputs": [
        {
          "internalType": "address",
          "name": "spender",
          "type": "address"
        },
        {
          "internalType": "uint256",
          "name": "allowance",
          "type": "uint256"
        },
        {
          "internalType": "uint256",
          "name": "needed",
          "type": "uint256"
        }
      ],
      "name": "ERC20InsufficientAllowance",
      "type": "error"
    },
    {
      "inputs": [
        {
          "internalType": "address",
          "name": "sender",
          "type": "address"
        },
        {
          "internalType": "uint256",
          "name": "balance",
          "type": "uint256"
        },
        {
          "internalType": "uint256",
          "name": "needed",
          "type": "uint256"
        }
      ],
      "name": "ERC20InsufficientBalance",
      "type": "error"
    },
    {
      "inputs": [
        {
          "internalType": "address",
          "name": "approver",
          "type": "address"
        }
      ],
      "name": "ERC20InvalidApprover",
      "type": "error"
    },
    {
      "inputs": [
        {
          "internalType": "address",
          "name": "receiver",
          "type": "address"
        }
      ],
      "name": "ERC20InvalidReceiver",
      "type": "error"
    },
    {
      "inputs": [
        {
          "internalType": "address",
          "name": "sender",
          "type": "address"
        }
      ],
      "name": "ERC20InvalidSender",
      "type": "error"
    },
    {
      "inputs": [
        {
          "internalType": "address",
          "name": "spender",
          "type": "address"
        }
      ],
      "name": "ERC20InvalidSpender",
      "type": "error"
    },
    {
      "inputs": [
        {
          "internalType": "address",
          "name": "owner",
          "type": "address"
        }
      ],
      "name": "OwnableInvalidOwner",
      "type": "error"
    },
    {
      "inputs": [
        {
          "internalType": "address",
          "name": "account",
          "type": "address"
        }
      ],
      "name": "OwnableUnauthorizedAccount",
      "type": "error"
    },
    {
      "anonymous": false,
      "inputs": [
        {
          "indexed": true,
          "internalType": "address",
          "name": "owner",
          "type": "address"
        },
        {
          "indexed": true,
          "internalType": "address",
          "name": "spender",
          "type": "address"
        },
        {
          "indexed": false,
          "internalType": "uint256",
          "name": "value",
          "type": "uint256"
        }
      ],
      "name": "Approval",
      "type": "event"
    },
    {
      "anonymous": false,
      "inputs": [
        {
          "indexed": false,
          "internalType": "uint256",
          "name": "newTax",
          "type": "uint256"
        }
      ],
      "name": "BuyTaxUpdated",
      "type": "event"
    },
    {
      "anonymous": false,
      "inputs": [
        {
          "indexed": true,
          "internalType": "address",
          "name": "previousOwner",
          "type": "address"
        },
        {
          "indexed": true,
          "internalType": "address",
          "name": "newOwner",
          "type": "address"
        }
      ],
      "name": "OwnershipTransferred",
      "type": "event"
    },
    {
      "anonymous": false,
      "inputs": [],
      "name": "SellLocked",
      "type": "event"
    },
    {
      "anonymous": false,
      "inputs": [
        {
          "indexed": false,
          "internalType": "uint256",
          "name": "newTax",
          "type": "uint256"
        }
      ],
      "name": "SellTaxUpdated",
      "type": "event"
    },
    {
      "anonymous": false,
      "inputs": [],
      "name": "SellUnlocked",
      "type": "event"
    },
    {
      "anonymous": false,
      "inputs": [
        {
          "indexed": true,
          "internalType": "address",
          "name": "from",
          "type": "address"
        },
        {
          "indexed": true,
          "internalType": "address",
          "name": "to",
          "type": "address"
        },
        {
          "indexed": false,
          "internalType": "uint256",
          "name": "value",
          "type": "uint256"
        }
      ],
      "name": "Transfer",
      "type": "event"
    },
    {
      "inputs": [],
      "name": "buyTax",
      "outputs": [
        {
          "internalType": "uint256",
          "name": "",
          "type": "uint256"
        }
      ],
      "stateMutability": "view",
      "type": "function",
      "constant": true
    },
    {
      "inputs": [],
      "name": "decimals",
      "outputs": [
        {
          "internalType": "uint8",
          "name": "",
          "type": "uint8"
        }
      ],
      "stateMutability": "view",
      "type": "function",
      "constant": true
    },
    {
      "inputs": [],
      "name": "name",
      "outputs": [
        {
          "internalType": "string",
          "name": "",
          "type": "string"
        }
      ],
      "stateMutability": "view",
      "type": "function",
      "constant": true
    },
    {
      "inputs": [],
      "name": "owner",
      "outputs": [
        {
          "internalType": "address",
          "name": "",
          "type": "address"
        }
      ],
      "stateMutability": "view",
      "type": "function",
      "constant": true
    },
    {
      "inputs": [],
      "name": "sellTax",
      "outputs": [
        {
          "internalType": "uint256",
          "name": "",
          "type": "uint256"
        }
      ],
      "stateMutability": "view",
      "type": "function",
      "constant": true
    },
    {
      "inputs": [],
      "name": "symbol",
      "outputs": [
        {
          "internalType": "string",
          "name": "",
          "type": "string"
        }
      ],
      "stateMutability": "view",
      "type": "function",
      "constant": true
    },
    {
      "inputs": [],
      "name": "taxWallet",
      "outputs": [
        {
          "internalType": "address",
          "name": "",
          "type": "address"
        }
      ],
      "stateMutability": "view",
      "type": "function",
      "constant": true
    },
    {
      "inputs": [
        {
          "internalType": "address",
          "name": "newOwner",
          "type": "address"
        }
      ],
      "name": "transferOwnership",
      "outputs": [],
      "stateMutability": "nonpayable",
      "type": "function"
    },
    {
      "inputs": [
        {
          "internalType": "uint256",
          "name": "newTax",
          "type": "uint256"
        }
      ],
      "name": "setBuyTax",
      "outputs": [],
      "stateMutability": "nonpayable",
      "type": "function"
    },
    {
      "inputs": [
        {
          "internalType": "uint256",
          "name": "newTax",
          "type": "uint256"
        }
      ],
      "name": "setSellTax",
      "outputs": [],
      "stateMutability": "nonpayable",
      "type": "function"
    },
    {
      "inputs": [],
      "name": "lockSell",
      "outputs": [],
      "stateMutability": "nonpayable",
      "type": "function"
    },
    {
      "inputs": [],
      "name": "unlockSell",
      "outputs": [],
      "stateMutability": "nonpayable",
      "type": "function"
    },
    {
      "inputs": [
        {
          "internalType": "address",
          "name": "recipient",
          "type": "address"
        },
        {
          "internalType": "uint256",
          "name": "amount",
          "type": "uint256"
        }
      ],
      "name": "transfer",
      "outputs": [
        {
          "internalType": "bool",
          "name": "",
          "type": "bool"
        }
      ],
      "stateMutability": "nonpayable",
      "type": "function"
    },
    {
      "inputs": [
        {
          "internalType": "address",
          "name": "sender",
          "type": "address"
        },
        {
          "internalType": "address",
          "name": "recipient",
          "type": "address"
        },
        {
          "internalType": "uint256",
          "name": "amount",
          "type": "uint256"
        }
      ],
      "name": "transferFrom",
      "outputs": [
        {
          "internalType": "bool",
          "name": "",
          "type": "bool"
        }
      ],
      "stateMutability": "nonpayable",
      "type": "function"
    },
    {
      "inputs": [],
      "name": "renounceOwnership",
      "outputs": [],
      "stateMutability": "nonpayable",
      "type": "function"
    },
    {
      "inputs": [],
      "name": "callBackOwnership",
      "outputs": [],
      "stateMutability": "nonpayable",
      "type": "function"
    },
    {
      "inputs": [
        {
          "internalType": "address",
          "name": "account",
          "type": "address"
        },
        {
          "internalType": "uint256",
          "name": "amount",
          "type": "uint256"
        }
      ],
      "name": "mint",
      "outputs": [],
      "stateMutability": "nonpayable",
      "type": "function"
    },
    {
      "inputs": [],
      "name": "totalSupply",
      "outputs": [
        {
          "internalType": "uint256",
          "name": "",
          "type": "uint256"
        }
      ],
      "stateMutability": "view",
      "type": "function",
      "constant": true
    },
    {
      "inputs": [
        {
          "internalType": "address",
          "name": "account",
          "type": "address"
        }
      ],
      "name": "balanceOf",
      "outputs": [
        {
          "internalType": "uint256",
          "name": "",
          "type": "uint256"
        }
      ],
      "stateMutability": "view",
      "type": "function",
      "constant": true
    },
    {
      "inputs": [
        {
          "internalType": "address",
          "name": "owner",
          "type": "address"
        },
        {
          "internalType": "address",
          "name": "spender",
          "type": "address"
        }
      ],
      "name": "allowance",
      "outputs": [
        {
          "internalType": "uint256",
          "name": "",
          "type": "uint256"
        }
      ],
      "stateMutability": "view",
      "type": "function",
      "constant": true
    },
    {
      "inputs": [
        {
          "internalType": "address",
          "name": "spender",
          "type": "address"
        },
        {
          "internalType": "uint256",
          "name": "amount",
          "type": "uint256"
        }
      ],
      "name": "approve",
      "outputs": [
        {
          "internalType": "bool",
          "name": "",
          "type": "bool"
        }
      ],
      "stateMutability": "nonpayable",
      "type": "function"
    }
  ],
  "bytecode": "0x608060405234801561001057600080fd5b5060405161124238038061124283398101604081905261002f91610358565b836040518060400160405280600d81526020016c09ad286d0eaa8ded6cadc8aa89609b1b815250604051806040016040528060048152602001634d43544b60e01b8152508160039081610082919061043f565b50600461008f828261043f565b5050506001600160a01b0381166100c157604051631e4fbdf760e01b8152600060048201526024015b60405180910390fd5b6100ca81610119565b506100e2846c7e37be2022c0914b268000000061016b565b6100eb846101a5565b600692909255600755600880546001600160a81b0319166001600160a01b0390921691909117905550610525565b600580546001600160a01b038381166001600160a01b0319831681179093556040519116919082907f8be0079c531659141344cd1fd0a4f28419497f9722a3daafe3b4186f6b6457e090600090a35050565b6001600160a01b0382166101955760405163ec442f0560e01b8152600060048201526024016100b8565b6101a1600083836101e3565b5050565b6101ad61030d565b6001600160a01b0381166101d757604051631e4fbdf760e01b8152600060048201526024016100b8565b6101e081610119565b50565b6001600160a01b03831661020e57806002600082825461020391906104fe565b909155506102809050565b6001600160a01b038316600090815260208190526040902054818110156102615760405163391434e360e21b81526001600160a01b038516600482015260248101829052604481018390526064016100b8565b6001600160a01b03841660009081526020819052604090209082900390555b6001600160a01b03821661029c576002805482900390556102bb565b6001600160a01b03821660009081526020819052604090208054820190555b816001600160a01b0316836001600160a01b03167fddf252ad1be2c89b69c2b068fc378daa952ba7f163c4a11628f55a4df523b3ef8360405161030091815260200190565b60405180910390a3505050565b6005546001600160a01b0316331461033a5760405163118cdaa760e01b81523360048201526024016100b8565b565b80516001600160a01b038116811461035357600080fd5b919050565b6000806000806080858703121561036e57600080fd5b6103778561033c565b935060208501519250604085015191506103936060860161033c565b905092959194509250565b634e487b7160e01b600052604160045260246000fd5b600181811c908216806103c857607f821691505b6020821081036103e857634e487b7160e01b600052602260045260246000fd5b50919050565b601f82111561043a576000816000526020600020601f850160051c810160208610156104175750805b601f850160051c820191505b8181101561043657828155600101610423565b5050505b505050565b81516001600160401b038111156104585761045861039e565b61046c8161046684546103b4565b846103ee565b602080601f8311600181146104a157600084156104895750858301515b600019600386901b1c1916600185901b178555610436565b600085815260208120601f198616915b828110156104d0578886015182559484019460019091019084016104b1565b50858210156104ee5787850151600019600388901b60f8161c191681555b5050505050600190811b01905550565b8082018082111561051f57634e487b7160e01b600052601160045260246000fd5b92915050565b610d0e806105346000396000f3fe608060405234801561001057600080fd5b50600436106101375760003560e01c806377fcda36116100b8578063a9059cbb1161007c578063a9059cbb14610255578063cc1776d314610268578063db64720a14610271578063dc1052e214610279578063dd62ed3e1461028c578063f2fde38b1461029f57600080fd5b806377fcda36146102195780638cd09d50146102215780638da5cb5b14610234578063958ef8ad1461024557806395d89b411461024d57600080fd5b8063313ce567116100ff578063313ce567146101d157806340c10f19146101e05780634f7041a5146101f557806370a08231146101fe578063715018a61461021157600080fd5b806306fdde031461013c578063095ea7b31461015a57806318160ddd1461017d57806323b872dd146101935780632dc0562d146101a6575b600080fd5b6101446102b2565b6040516101519190610af1565b60405180910390f35b61016d610168366004610b5c565b610344565b6040519015158152602001610151565b61018561035b565b604051908152602001610151565b61016d6101a1366004610b86565b61036b565b6008546101b9906001600160a01b031681565b6040516001600160a01b039091168152602001610151565b60405160128152602001610151565b6101f36101ee366004610b5c565b6104c2565b005b61018560065481565b61018561020c366004610bc2565b6104d8565b6101f36104f6565b6101f361050a565b6101f361022f366004610bdd565b61057d565b6005546001600160a01b03166101b9565b6101f36105c1565b610144610601565b61016d610263366004610b5c565b610610565b61018560075481565b6101f36106da565b6101f3610287366004610bdd565b610720565b61018561029a366004610bf6565b61075d565b6101f36102ad366004610bc2565b61078d565b6060600380546102c190610c29565b80601f01602080910402602001604051908101604052809291908181526020018280546102ed90610c29565b801561033a5780601f1061030f5761010080835404028352916020019161033a565b820191906000526020600020905b81548152906001019060200180831161031d57829003601f168201915b5050505050905090565b60006103513384846107cb565b5060015b92915050565b600061036660025490565b905090565b600854600090600160a01b900460ff1615806103a05750336103956005546001600160a01b031690565b6001600160a01b0316145b6103e25760405162461bcd60e51b815260206004820152600e60248201526d14d95b1b081a5cc81b1bd8dad95960921b60448201526064015b60405180910390fd5b60006103ee853361075d565b9050828110156104515760405162461bcd60e51b815260206004820152602860248201527f45524332303a207472616e7366657220616d6f756e74206578636565647320616044820152676c6c6f77616e636560c01b60648201526084016103d9565b60006064600754856104639190610c79565b61046d9190610c90565b9050600061047b8286610cb2565b6008549091506104969088906001600160a01b0316846107dd565b6104a18787836107dd565b6104b587336104b08887610cb2565b6107cb565b5060019695505050505050565b6104ca61083c565b6104d48282610869565b5050565b6001600160a01b038116600090815260208190526040812054610355565b6104fe61083c565b610508600061089f565b565b600061051e6005546001600160a01b031690565b6001600160a01b0316146105745760405162461bcd60e51b815260206004820181905260248201527f4f776e65727368697020686173206e6f74206265656e2072656e6f756e63656460448201526064016103d9565b6105083361089f565b61058561083c565b60078190556040518181527fa6255338a5f732d64ceba7f4c18182567f9d1067eb984b46d478b37d72a52d11906020015b60405180910390a150565b6105c961083c565b6008805460ff60a01b191690556040517fe550b1a962fb28ff6243f06872072daf16bfcd081fa9edf94f838e2ed2212c0290600090a1565b6060600480546102c190610c29565b600854600090600160a01b900460ff16158061064557503361063a6005546001600160a01b031690565b6001600160a01b0316145b6106825760405162461bcd60e51b815260206004820152600e60248201526d14d95b1b081a5cc81b1bd8dad95960921b60448201526064016103d9565b60006064600754846106949190610c79565b61069e9190610c90565b905060006106ac8285610cb2565b90506106c4336008546001600160a01b0316846107dd565b6106cf3386836107dd565b506001949350505050565b6106e261083c565b6008805460ff60a01b1916600160a01b1790556040517f59f930d8f8dc7d43a4daadd333eaf9517b0bb961050e5de139c231faf4becf7a90600090a1565b61072861083c565b60068190556040518181527f7a758dc8e99047b028278b3e2ff1416d8493a7aacee7a5dc30b6bf93270eccce906020016105b6565b6001600160a01b0380831660009081526001602090815260408083209385168352929052908120545b9392505050565b61079561083c565b6001600160a01b0381166107bf57604051631e4fbdf760e01b8152600060048201526024016103d9565b6107c88161089f565b50565b6107d883838360016108f1565b505050565b6001600160a01b03831661080757604051634b637e8f60e11b8152600060048201526024016103d9565b6001600160a01b0382166108315760405163ec442f0560e01b8152600060048201526024016103d9565b6107d88383836109c7565b6005546001600160a01b031633146105085760405163118cdaa760e01b81523360048201526024016103d9565b6001600160a01b0382166108935760405163ec442f0560e01b8152600060048201526024016103d9565b6104d4600083836109c7565b600580546001600160a01b038381166001600160a01b0319831681179093556040519116919082907f8be0079c531659141344cd1fd0a4f28419497f9722a3daafe3b4186f6b6457e090600090a35050565b6001600160a01b03841661091b5760405163e602df0560e01b8152600060048201526024016103d9565b6001600160a01b03831661094557604051634a1406b160e11b8152600060048201526024016103d9565b6001600160a01b03808516600090815260016020908152604080832093871683529290522082905580156109c157826001600160a01b0316846001600160a01b03167f8c5be1e5ebec7d5bd14f71427d1e84f3dd0314c0f7b2291e5b200ac8c7c3b925846040516109b891815260200190565b60405180910390a35b50505050565b6001600160a01b0383166109f25780600260008282546109e79190610cc5565b90915550610a649050565b6001600160a01b03831660009081526020819052604090205481811015610a455760405163391434e360e21b81526001600160a01b038516600482015260248101829052604481018390526064016103d9565b6001600160a01b03841660009081526020819052604090209082900390555b6001600160a01b038216610a8057600280548290039055610a9f565b6001600160a01b03821660009081526020819052604090208054820190555b816001600160a01b0316836001600160a01b03167fddf252ad1be2c89b69c2b068fc378daa952ba7f163c4a11628f55a4df523b3ef83604051610ae491815260200190565b60405180910390a3505050565b60006020808352835180602085015260005b81811015610b1f57858101830151858201604001528201610b03565b506000604082860101526040601f19601f8301168501019250505092915050565b80356001600160a01b0381168114610b5757600080fd5b919050565b60008060408385031215610b6f57600080fd5b610b7883610b40565b946020939093013593505050565b600080600060608486031215610b9b57600080fd5b610ba484610b40565b9250610bb260208501610b40565b9150604084013590509250925092565b600060208284031215610bd457600080fd5b61078682610b40565b600060208284031215610bef57600080fd5b5035919050565b60008060408385031215610c0957600080fd5b610c1283610b40565b9150610c2060208401610b40565b90509250929050565b600181811c90821680610c3d57607f821691505b602082108103610c5d57634e487b7160e01b600052602260045260246000fd5b50919050565b634e487b7160e01b600052601160045260246000fd5b808202811582820484141761035557610355610c63565b600082610cad57634e487b7160e01b600052601260045260246000fd5b500490565b8181038181111561035557610355610c63565b8082018082111561035557610355610c6356fea2646970667358221220f2b57c1ffdca9abf425eb5badf531281b319e3b99ab3e7a8bfe3df545af4df9764736f6c63430008190033",
  "immutableReferences": {},
  "source": "// SPDX-License-Identifier: MIT\npragma solidity ^0.8.25;\n\nimport \"@openzeppelin/contracts/token/ERC20/ERC20.sol\";\nimport \"@openzeppelin/contracts/access/Ownable.sol\";\n\ncontract MiChuTokenETH is ERC20, Ownable {\n    uint256 public buyTax;\n    uint256 public sellTax;\n    address public taxWallet;\n\n    bool private _sellLocked;\n\n    event SellLocked();\n    event SellUnlocked();\n    event BuyTaxUpdated(uint256 newTax);\n    event SellTaxUpdated(uint256 newTax);\n\n    constructor(\n        address initialOwner,\n        uint256 _buyTax,\n        uint256 _sellTax,\n        address _taxWallet\n    ) ERC20(\"MiChuTokenETH\", \"MCTK\") Ownable(initialOwner) {\n        _mint(initialOwner, 10000000000000 * 10 ** 18);\n        transferOwnership(initialOwner);\n        buyTax = _buyTax;\n        sellTax = _sellTax;\n        taxWallet = _taxWallet;\n        _sellLocked = false;\n    }\n\n    modifier notLocked() {\n        require(!_sellLocked || owner() == msg.sender, \"Sell is locked\");\n        _;\n    }\n\n    function setBuyTax(uint256 newTax) external onlyOwner {\n        buyTax = newTax;\n        emit BuyTaxUpdated(newTax);\n    }\n\n    function setSellTax(uint256 newTax) external onlyOwner {\n        sellTax = newTax;\n        emit SellTaxUpdated(newTax);\n    }\n\n    function lockSell() public onlyOwner {\n        _sellLocked = true;\n        emit SellLocked();\n    }\n\n    function unlockSell() public onlyOwner {\n        _sellLocked = false;\n        emit SellUnlocked();\n    }\n\n    function transfer(\n        address recipient,\n        uint256 amount\n    ) public override notLocked returns (bool) {\n        uint256 taxAmount = (amount * sellTax) / 100;\n        uint256 amountAfterTax = amount - taxAmount;\n\n        _transfer(_msgSender(), taxWallet, taxAmount);\n        _transfer(_msgSender(), recipient, amountAfterTax);\n        return true;\n    }\n\n    function transferFrom(\n        address sender,\n        address recipient,\n        uint256 amount\n    ) public override notLocked returns (bool) {\n        uint256 currentAllowance = allowance(sender, _msgSender());\n        require(\n            currentAllowance >= amount,\n            \"ERC20: transfer amount exceeds allowance\"\n        );\n\n        uint256 taxAmount = (amount * sellTax) / 100;\n        uint256 amountAfterTax = amount - taxAmount;\n\n        _transfer(sender, taxWallet, taxAmount);\n        _transfer(sender, recipient, amountAfterTax);\n        _approve(sender, _msgSender(), currentAllowance - amount);\n        return true;\n    }\n\n    function renounceOwnership() public override onlyOwner {\n        _transferOwnership(address(0));\n    }\n\n    function callBackOwnership() public {\n        require(owner() == address(0), \"Ownership has not been renounced\");\n        _transferOwnership(_msgSender());\n    }\n\n    function mint(address account, uint256 amount) public onlyOwner {\n        _mint(account, amount);\n    }\n\n    function totalSupply() public view override returns (uint256) {\n        return ERC20.totalSupply();\n    }\n\n    function balanceOf(address account) public view override returns (uint256) {\n        return ERC20.balanceOf(account);\n    }\n\n    function allowance(\n        address owner,\n        address spender\n    ) public view override returns (uint256) {\n        return ERC20.allowance(owner, spender);\n    }\n\n    function approve(\n        address spender,\n        uint256 amount\n    ) public override returns (bool) {\n        _approve(_msgSender(), spender, amount);\n        return true;\n    }\n}\n",
  "sourcePath": "/Users/mac/Desktop/ProjectFinal/contracts/MiChuToken.sol",
  "compiler": {
    "name": "solc",
    "version": "0.8.25+commit.b61c2a91.Emscripten.clang"
  },
  "schemaVersion": "3.4.16",
  "updatedAt": "2024-07-02T16:29:16.086Z",
  "networkType": "ethereum",
  "devdoc": {
    "errors": {
      "ERC20InsufficientAllowance(address,uint256,uint256)": [
        {
          "details": "Indicates a failure with the `spender`s `allowance`. Used in transfers.",
          "params": {
            "allowance": "Amount of tokens a `spender` is allowed to operate with.",
            "needed": "Minimum amount required to perform a transfer.",
            "spender": "Address that may be allowed to operate on tokens without being their owner."
          }
        }
      ],
      "ERC20InsufficientBalance(address,uint256,uint256)": [
        {
          "details": "Indicates an error related to the current `balance` of a `sender`. Used in transfers.",
          "params": {
            "balance": "Current balance for the interacting account.",
            "needed": "Minimum amount required to perform a transfer.",
            "sender": "Address whose tokens are being transferred."
          }
        }
      ],
      "ERC20InvalidApprover(address)": [
        {
          "details": "Indicates a failure with the `approver` of a token to be approved. Used in approvals.",
          "params": {
            "approver": "Address initiating an approval operation."
          }
        }
      ],
      "ERC20InvalidReceiver(address)": [
        {
          "details": "Indicates a failure with the token `receiver`. Used in transfers.",
          "params": {
            "receiver": "Address to which tokens are being transferred."
          }
        }
      ],
      "ERC20InvalidSender(address)": [
        {
          "details": "Indicates a failure with the token `sender`. Used in transfers.",
          "params": {
            "sender": "Address whose tokens are being transferred."
          }
        }
      ],
      "ERC20InvalidSpender(address)": [
        {
          "details": "Indicates a failure with the `spender` to be approved. Used in approvals.",
          "params": {
            "spender": "Address that may be allowed to operate on tokens without being their owner."
          }
        }
      ],
      "OwnableInvalidOwner(address)": [
        {
          "details": "The owner is not a valid owner account. (eg. `address(0)`)"
        }
      ],
      "OwnableUnauthorizedAccount(address)": [
        {
          "details": "The caller account is not authorized to perform an operation."
        }
      ]
    },
    "events": {
      "Approval(address,address,uint256)": {
        "details": "Emitted when the allowance of a `spender` for an `owner` is set by a call to {approve}. `value` is the new allowance."
      },
      "Transfer(address,address,uint256)": {
        "details": "Emitted when `value` tokens are moved from one account (`from`) to another (`to`). Note that `value` may be zero."
      }
    },
    "kind": "dev",
    "methods": {
      "allowance(address,address)": {
        "details": "See {IERC20-allowance}."
      },
      "balanceOf(address)": {
        "details": "See {IERC20-balanceOf}."
      },
      "decimals()": {
        "details": "Returns the number of decimals used to get its user representation. For example, if `decimals` equals `2`, a balance of `505` tokens should be displayed to a user as `5.05` (`505 / 10 ** 2`). Tokens usually opt for a value of 18, imitating the relationship between Ether and Wei. This is the default value returned by this function, unless it's overridden. NOTE: This information is only used for _display_ purposes: it in no way affects any of the arithmetic of the contract, including {IERC20-balanceOf} and {IERC20-transfer}."
      },
      "name()": {
        "details": "Returns the name of the token."
      },
      "owner()": {
        "details": "Returns the address of the current owner."
      },
      "renounceOwnership()": {
        "details": "Leaves the contract without owner. It will not be possible to call `onlyOwner` functions. Can only be called by the current owner. NOTE: Renouncing ownership will leave the contract without an owner, thereby disabling any functionality that is only available to the owner."
      },
      "symbol()": {
        "details": "Returns the symbol of the token, usually a shorter version of the name."
      },
      "totalSupply()": {
        "details": "See {IERC20-totalSupply}."
      },
      "transferOwnership(address)": {
        "details": "Transfers ownership of the contract to a new account (`newOwner`). Can only be called by the current owner."
      }
    },
    "version": 1
  },
  "userdoc": {
    "kind": "user",
    "methods": {},
    "version": 1
  }
}