{
  "contractName": "MiChuToken",
  "abi": [
    {
      "inputs": [],
      "stateMutability": "nonpayable",
      "type": "constructor"
    },
    {
      "inputs": [
        {
          "internalType": "address",
          "name": "spender",
          "type": "address"
        },
        {
          "internalType": "uint256",
          "name": "allowance",
          "type": "uint256"
        },
        {
          "internalType": "uint256",
          "name": "needed",
          "type": "uint256"
        }
      ],
      "name": "ERC20InsufficientAllowance",
      "type": "error"
    },
    {
      "inputs": [
        {
          "internalType": "address",
          "name": "sender",
          "type": "address"
        },
        {
          "internalType": "uint256",
          "name": "balance",
          "type": "uint256"
        },
        {
          "internalType": "uint256",
          "name": "needed",
          "type": "uint256"
        }
      ],
      "name": "ERC20InsufficientBalance",
      "type": "error"
    },
    {
      "inputs": [
        {
          "internalType": "address",
          "name": "approver",
          "type": "address"
        }
      ],
      "name": "ERC20InvalidApprover",
      "type": "error"
    },
    {
      "inputs": [
        {
          "internalType": "address",
          "name": "receiver",
          "type": "address"
        }
      ],
      "name": "ERC20InvalidReceiver",
      "type": "error"
    },
    {
      "inputs": [
        {
          "internalType": "address",
          "name": "sender",
          "type": "address"
        }
      ],
      "name": "ERC20InvalidSender",
      "type": "error"
    },
    {
      "inputs": [
        {
          "internalType": "address",
          "name": "spender",
          "type": "address"
        }
      ],
      "name": "ERC20InvalidSpender",
      "type": "error"
    },
    {
      "anonymous": false,
      "inputs": [
        {
          "indexed": true,
          "internalType": "address",
          "name": "owner",
          "type": "address"
        },
        {
          "indexed": true,
          "internalType": "address",
          "name": "spender",
          "type": "address"
        },
        {
          "indexed": false,
          "internalType": "uint256",
          "name": "value",
          "type": "uint256"
        }
      ],
      "name": "Approval",
      "type": "event"
    },
    {
      "anonymous": false,
      "inputs": [
        {
          "indexed": true,
          "internalType": "address",
          "name": "from",
          "type": "address"
        },
        {
          "indexed": true,
          "internalType": "address",
          "name": "to",
          "type": "address"
        },
        {
          "indexed": false,
          "internalType": "uint256",
          "name": "value",
          "type": "uint256"
        }
      ],
      "name": "Transfer",
      "type": "event"
    },
    {
      "inputs": [],
      "name": "decimals",
      "outputs": [
        {
          "internalType": "uint8",
          "name": "",
          "type": "uint8"
        }
      ],
      "stateMutability": "view",
      "type": "function",
      "constant": true
    },
    {
      "inputs": [],
      "name": "name",
      "outputs": [
        {
          "internalType": "string",
          "name": "",
          "type": "string"
        }
      ],
      "stateMutability": "view",
      "type": "function",
      "constant": true
    },
    {
      "inputs": [
        {
          "internalType": "address",
          "name": "",
          "type": "address"
        }
      ],
      "name": "payments",
      "outputs": [
        {
          "internalType": "uint256",
          "name": "",
          "type": "uint256"
        }
      ],
      "stateMutability": "view",
      "type": "function",
      "constant": true
    },
    {
      "inputs": [],
      "name": "symbol",
      "outputs": [
        {
          "internalType": "string",
          "name": "",
          "type": "string"
        }
      ],
      "stateMutability": "view",
      "type": "function",
      "constant": true
    },
    {
      "inputs": [],
      "name": "totalSupply",
      "outputs": [
        {
          "internalType": "uint256",
          "name": "",
          "type": "uint256"
        }
      ],
      "stateMutability": "view",
      "type": "function",
      "constant": true
    },
    {
      "inputs": [
        {
          "internalType": "address",
          "name": "account",
          "type": "address"
        }
      ],
      "name": "balanceOf",
      "outputs": [
        {
          "internalType": "uint256",
          "name": "",
          "type": "uint256"
        }
      ],
      "stateMutability": "view",
      "type": "function",
      "constant": true
    },
    {
      "inputs": [
        {
          "internalType": "address",
          "name": "to",
          "type": "address"
        },
        {
          "internalType": "uint256",
          "name": "value",
          "type": "uint256"
        }
      ],
      "name": "transfer",
      "outputs": [
        {
          "internalType": "bool",
          "name": "",
          "type": "bool"
        }
      ],
      "stateMutability": "nonpayable",
      "type": "function"
    },
    {
      "inputs": [
        {
          "internalType": "address",
          "name": "owner",
          "type": "address"
        },
        {
          "internalType": "address",
          "name": "spender",
          "type": "address"
        }
      ],
      "name": "allowance",
      "outputs": [
        {
          "internalType": "uint256",
          "name": "",
          "type": "uint256"
        }
      ],
      "stateMutability": "view",
      "type": "function",
      "constant": true
    },
    {
      "inputs": [
        {
          "internalType": "address",
          "name": "spender",
          "type": "address"
        },
        {
          "internalType": "uint256",
          "name": "value",
          "type": "uint256"
        }
      ],
      "name": "approve",
      "outputs": [
        {
          "internalType": "bool",
          "name": "",
          "type": "bool"
        }
      ],
      "stateMutability": "nonpayable",
      "type": "function"
    },
    {
      "inputs": [
        {
          "internalType": "address",
          "name": "from",
          "type": "address"
        },
        {
          "internalType": "address",
          "name": "to",
          "type": "address"
        },
        {
          "internalType": "uint256",
          "name": "value",
          "type": "uint256"
        }
      ],
      "name": "transferFrom",
      "outputs": [
        {
          "internalType": "bool",
          "name": "",
          "type": "bool"
        }
      ],
      "stateMutability": "nonpayable",
      "type": "function"
    }
  ],
  "bytecode": "0x608060405234801561001057600080fd5b506040518060400160405280600a81526020016926b4a1b43aaa37b5b2b760b11b815250604051806040016040528060048152602001634d43544b60e01b8152508160039081610060919061029c565b50600461006d828261029c565b50505061008d336c7e37be2022c0914b268000000061009260201b60201c565b610382565b6001600160a01b0382166100c15760405163ec442f0560e01b8152600060048201526024015b60405180910390fd5b6100cd600083836100d1565b5050565b6001600160a01b0383166100fc5780600260008282546100f1919061035b565b9091555061016e9050565b6001600160a01b0383166000908152602081905260409020548181101561014f5760405163391434e360e21b81526001600160a01b038516600482015260248101829052604481018390526064016100b8565b6001600160a01b03841660009081526020819052604090209082900390555b6001600160a01b03821661018a576002805482900390556101a9565b6001600160a01b03821660009081526020819052604090208054820190555b816001600160a01b0316836001600160a01b03167fddf252ad1be2c89b69c2b068fc378daa952ba7f163c4a11628f55a4df523b3ef836040516101ee91815260200190565b60405180910390a3505050565b634e487b7160e01b600052604160045260246000fd5b600181811c9082168061022557607f821691505b60208210810361024557634e487b7160e01b600052602260045260246000fd5b50919050565b601f821115610297576000816000526020600020601f850160051c810160208610156102745750805b601f850160051c820191505b8181101561029357828155600101610280565b5050505b505050565b81516001600160401b038111156102b5576102b56101fb565b6102c9816102c38454610211565b8461024b565b602080601f8311600181146102fe57600084156102e65750858301515b600019600386901b1c1916600185901b178555610293565b600085815260208120601f198616915b8281101561032d5788860151825594840194600190910190840161030e565b508582101561034b5787850151600019600388901b60f8161c191681555b5050505050600190811b01905550565b8082018082111561037c57634e487b7160e01b600052601160045260246000fd5b92915050565b6107e0806103916000396000f3fe608060405234801561001057600080fd5b506004361061009e5760003560e01c806370a082311161006657806370a082311461011c57806395d89b411461012f578063a9059cbb14610137578063dd62ed3e1461014a578063e2982c211461015d57600080fd5b806306fdde03146100a3578063095ea7b3146100c157806318160ddd146100e457806323b872dd146100fa578063313ce5671461010d575b600080fd5b6100ab61017d565b6040516100b89190610630565b60405180910390f35b6100d46100cf36600461069b565b61020f565b60405190151581526020016100b8565b6100ec610224565b6040519081526020016100b8565b6100d46101083660046106c5565b610234565b604051601281526020016100b8565b6100ec61012a366004610701565b610277565b6100ab610295565b6100d461014536600461069b565b6102a4565b6100ec61015836600461071c565b6102de565b6100ec61016b366004610701565b60056020526000908152604090205481565b60606003805461018c9061074f565b80601f01602080910402602001604051908101604052809291908181526020018280546101b89061074f565b80156102055780601f106101da57610100808354040283529160200191610205565b820191906000526020600020905b8154815290600101906020018083116101e857829003601f168201915b5050505050905090565b600061021b838361030b565b90505b92915050565b600061022f60025490565b905090565b6001600160a01b03821660009081526005602052604081208054839190839061025e908490610789565b9091555061026f9050848484610323565b949350505050565b6001600160a01b03811660009081526020819052604081205461021e565b60606004805461018c9061074f565b6001600160a01b0382166000908152600560205260408120805483919083906102ce908490610789565b9091555061021b90508383610347565b6001600160a01b03808316600090815260016020908152604080832093851683529290529081205461021b565b600033610319818585610355565b5060019392505050565b600033610331858285610367565b61033c8585856103d2565b506001949350505050565b6000336103198185856103d2565b6103628383836001610431565b505050565b600061037384846102de565b905060001981146103cc57818110156103bd57604051637dc7a0d960e11b81526001600160a01b038416600482015260248101829052604481018390526064015b60405180910390fd5b6103cc84848484036000610431565b50505050565b6001600160a01b0383166103fc57604051634b637e8f60e11b8152600060048201526024016103b4565b6001600160a01b0382166104265760405163ec442f0560e01b8152600060048201526024016103b4565b610362838383610506565b6001600160a01b03841661045b5760405163e602df0560e01b8152600060048201526024016103b4565b6001600160a01b03831661048557604051634a1406b160e11b8152600060048201526024016103b4565b6001600160a01b03808516600090815260016020908152604080832093871683529290522082905580156103cc57826001600160a01b0316846001600160a01b03167f8c5be1e5ebec7d5bd14f71427d1e84f3dd0314c0f7b2291e5b200ac8c7c3b925846040516104f891815260200190565b60405180910390a350505050565b6001600160a01b0383166105315780600260008282546105269190610789565b909155506105a39050565b6001600160a01b038316600090815260208190526040902054818110156105845760405163391434e360e21b81526001600160a01b038516600482015260248101829052604481018390526064016103b4565b6001600160a01b03841660009081526020819052604090209082900390555b6001600160a01b0382166105bf576002805482900390556105de565b6001600160a01b03821660009081526020819052604090208054820190555b816001600160a01b0316836001600160a01b03167fddf252ad1be2c89b69c2b068fc378daa952ba7f163c4a11628f55a4df523b3ef8360405161062391815260200190565b60405180910390a3505050565b60006020808352835180602085015260005b8181101561065e57858101830151858201604001528201610642565b506000604082860101526040601f19601f8301168501019250505092915050565b80356001600160a01b038116811461069657600080fd5b919050565b600080604083850312156106ae57600080fd5b6106b78361067f565b946020939093013593505050565b6000806000606084860312156106da57600080fd5b6106e38461067f565b92506106f16020850161067f565b9150604084013590509250925092565b60006020828403121561071357600080fd5b61021b8261067f565b6000806040838503121561072f57600080fd5b6107388361067f565b91506107466020840161067f565b90509250929050565b600181811c9082168061076357607f821691505b60208210810361078357634e487b7160e01b600052602260045260246000fd5b50919050565b8082018082111561021e57634e487b7160e01b600052601160045260246000fdfea26469706673582212203ade87a656aeed302982b547dfbf25a214b6e209af80f667f55f8f5f2dce29d964736f6c63430008190033",
  "immutableReferences": {},
  "source": "// SPDX-License-Identifier: MIT\npragma solidity ^0.8.25;\nimport {ERC20} from \"@openzeppelin/contracts/token/ERC20/ERC20.sol\";\nimport \"@openzeppelin/contracts/access/Ownable.sol\";\nimport \"@openzeppelin/contracts/utils/math/Math.sol\";\n\ncontract MiChuToken is ERC20 {\n    mapping(address => uint256) public payments;\n\n    constructor() ERC20(\"MiChuToken\", \"MCTK\") {\n        _mint(msg.sender, 10000000000000 * 10 ** 18);\n    }\n\n    function totalSupply() public view override returns (uint256) {\n        return ERC20.totalSupply();\n    }\n\n    function balanceOf(address account) public view override returns (uint256) {\n        return ERC20.balanceOf(account);\n    }\n\n    function transfer(\n        address to,\n        uint256 value\n    ) public override returns (bool) {\n        payments[to] += value;\n        return ERC20.transfer(to, value);\n    }\n\n    function allowance(\n        address owner,\n        address spender\n    ) public view override returns (uint256) {\n        return ERC20.allowance(owner, spender);\n    }\n\n    function approve(\n        address spender,\n        uint256 value\n    ) public override returns (bool) {\n        return ERC20.approve(spender, value);\n    }\n\n    function transferFrom(\n        address from,\n        address to,\n        uint256 value\n    ) public override returns (bool) {\n        payments[to] += value;\n        return ERC20.transferFrom(from, to, value);\n    }\n}\n",
  "sourcePath": "/Users/mac/Desktop/ProjectFinal/contracts/MiChuToken.sol",
  "compiler": {
    "name": "solc",
    "version": "0.8.25+commit.b61c2a91.Emscripten.clang"
  },
  "schemaVersion": "3.4.16",
  "updatedAt": "2024-06-19T16:42:16.908Z",
  "networkType": "ethereum",
  "devdoc": {
    "errors": {
      "ERC20InsufficientAllowance(address,uint256,uint256)": [
        {
          "details": "Indicates a failure with the `spender`s `allowance`. Used in transfers.",
          "params": {
            "allowance": "Amount of tokens a `spender` is allowed to operate with.",
            "needed": "Minimum amount required to perform a transfer.",
            "spender": "Address that may be allowed to operate on tokens without being their owner."
          }
        }
      ],
      "ERC20InsufficientBalance(address,uint256,uint256)": [
        {
          "details": "Indicates an error related to the current `balance` of a `sender`. Used in transfers.",
          "params": {
            "balance": "Current balance for the interacting account.",
            "needed": "Minimum amount required to perform a transfer.",
            "sender": "Address whose tokens are being transferred."
          }
        }
      ],
      "ERC20InvalidApprover(address)": [
        {
          "details": "Indicates a failure with the `approver` of a token to be approved. Used in approvals.",
          "params": {
            "approver": "Address initiating an approval operation."
          }
        }
      ],
      "ERC20InvalidReceiver(address)": [
        {
          "details": "Indicates a failure with the token `receiver`. Used in transfers.",
          "params": {
            "receiver": "Address to which tokens are being transferred."
          }
        }
      ],
      "ERC20InvalidSender(address)": [
        {
          "details": "Indicates a failure with the token `sender`. Used in transfers.",
          "params": {
            "sender": "Address whose tokens are being transferred."
          }
        }
      ],
      "ERC20InvalidSpender(address)": [
        {
          "details": "Indicates a failure with the `spender` to be approved. Used in approvals.",
          "params": {
            "spender": "Address that may be allowed to operate on tokens without being their owner."
          }
        }
      ]
    },
    "events": {
      "Approval(address,address,uint256)": {
        "details": "Emitted when the allowance of a `spender` for an `owner` is set by a call to {approve}. `value` is the new allowance."
      },
      "Transfer(address,address,uint256)": {
        "details": "Emitted when `value` tokens are moved from one account (`from`) to another (`to`). Note that `value` may be zero."
      }
    },
    "kind": "dev",
    "methods": {
      "allowance(address,address)": {
        "details": "See {IERC20-allowance}."
      },
      "approve(address,uint256)": {
        "details": "See {IERC20-approve}. NOTE: If `value` is the maximum `uint256`, the allowance is not updated on `transferFrom`. This is semantically equivalent to an infinite approval. Requirements: - `spender` cannot be the zero address."
      },
      "balanceOf(address)": {
        "details": "See {IERC20-balanceOf}."
      },
      "decimals()": {
        "details": "Returns the number of decimals used to get its user representation. For example, if `decimals` equals `2`, a balance of `505` tokens should be displayed to a user as `5.05` (`505 / 10 ** 2`). Tokens usually opt for a value of 18, imitating the relationship between Ether and Wei. This is the default value returned by this function, unless it's overridden. NOTE: This information is only used for _display_ purposes: it in no way affects any of the arithmetic of the contract, including {IERC20-balanceOf} and {IERC20-transfer}."
      },
      "name()": {
        "details": "Returns the name of the token."
      },
      "symbol()": {
        "details": "Returns the symbol of the token, usually a shorter version of the name."
      },
      "totalSupply()": {
        "details": "See {IERC20-totalSupply}."
      },
      "transfer(address,uint256)": {
        "details": "See {IERC20-transfer}. Requirements: - `to` cannot be the zero address. - the caller must have a balance of at least `value`."
      },
      "transferFrom(address,address,uint256)": {
        "details": "See {IERC20-transferFrom}. Emits an {Approval} event indicating the updated allowance. This is not required by the EIP. See the note at the beginning of {ERC20}. NOTE: Does not update the allowance if the current allowance is the maximum `uint256`. Requirements: - `from` and `to` cannot be the zero address. - `from` must have a balance of at least `value`. - the caller must have allowance for ``from``'s tokens of at least `value`."
      }
    },
    "version": 1
  },
  "userdoc": {
    "kind": "user",
    "methods": {},
    "version": 1
  }
}