{
  "contractName": "WordLegendNFT_two2",
  "abi": [
    {
      "inputs": [
        {
          "internalType": "address",
          "name": "initialOwner",
          "type": "address"
        }
      ],
      "stateMutability": "nonpayable",
      "type": "constructor"
    },
    {
      "inputs": [
        {
          "internalType": "address",
          "name": "sender",
          "type": "address"
        },
        {
          "internalType": "uint256",
          "name": "tokenId",
          "type": "uint256"
        },
        {
          "internalType": "address",
          "name": "owner",
          "type": "address"
        }
      ],
      "name": "ERC721IncorrectOwner",
      "type": "error"
    },
    {
      "inputs": [
        {
          "internalType": "address",
          "name": "operator",
          "type": "address"
        },
        {
          "internalType": "uint256",
          "name": "tokenId",
          "type": "uint256"
        }
      ],
      "name": "ERC721InsufficientApproval",
      "type": "error"
    },
    {
      "inputs": [
        {
          "internalType": "address",
          "name": "approver",
          "type": "address"
        }
      ],
      "name": "ERC721InvalidApprover",
      "type": "error"
    },
    {
      "inputs": [
        {
          "internalType": "address",
          "name": "operator",
          "type": "address"
        }
      ],
      "name": "ERC721InvalidOperator",
      "type": "error"
    },
    {
      "inputs": [
        {
          "internalType": "address",
          "name": "owner",
          "type": "address"
        }
      ],
      "name": "ERC721InvalidOwner",
      "type": "error"
    },
    {
      "inputs": [
        {
          "internalType": "address",
          "name": "receiver",
          "type": "address"
        }
      ],
      "name": "ERC721InvalidReceiver",
      "type": "error"
    },
    {
      "inputs": [
        {
          "internalType": "address",
          "name": "sender",
          "type": "address"
        }
      ],
      "name": "ERC721InvalidSender",
      "type": "error"
    },
    {
      "inputs": [
        {
          "internalType": "uint256",
          "name": "tokenId",
          "type": "uint256"
        }
      ],
      "name": "ERC721NonexistentToken",
      "type": "error"
    },
    {
      "inputs": [
        {
          "internalType": "address",
          "name": "owner",
          "type": "address"
        }
      ],
      "name": "OwnableInvalidOwner",
      "type": "error"
    },
    {
      "inputs": [
        {
          "internalType": "address",
          "name": "account",
          "type": "address"
        }
      ],
      "name": "OwnableUnauthorizedAccount",
      "type": "error"
    },
    {
      "anonymous": false,
      "inputs": [
        {
          "indexed": true,
          "internalType": "address",
          "name": "owner",
          "type": "address"
        },
        {
          "indexed": true,
          "internalType": "address",
          "name": "approved",
          "type": "address"
        },
        {
          "indexed": true,
          "internalType": "uint256",
          "name": "tokenId",
          "type": "uint256"
        }
      ],
      "name": "Approval",
      "type": "event"
    },
    {
      "anonymous": false,
      "inputs": [
        {
          "indexed": true,
          "internalType": "address",
          "name": "owner",
          "type": "address"
        },
        {
          "indexed": true,
          "internalType": "address",
          "name": "operator",
          "type": "address"
        },
        {
          "indexed": false,
          "internalType": "bool",
          "name": "approved",
          "type": "bool"
        }
      ],
      "name": "ApprovalForAll",
      "type": "event"
    },
    {
      "anonymous": false,
      "inputs": [
        {
          "indexed": false,
          "internalType": "uint256",
          "name": "_fromTokenId",
          "type": "uint256"
        },
        {
          "indexed": false,
          "internalType": "uint256",
          "name": "_toTokenId",
          "type": "uint256"
        }
      ],
      "name": "BatchMetadataUpdate",
      "type": "event"
    },
    {
      "anonymous": false,
      "inputs": [
        {
          "indexed": false,
          "internalType": "uint256",
          "name": "_tokenId",
          "type": "uint256"
        }
      ],
      "name": "MetadataUpdate",
      "type": "event"
    },
    {
      "anonymous": false,
      "inputs": [
        {
          "indexed": true,
          "internalType": "address",
          "name": "previousOwner",
          "type": "address"
        },
        {
          "indexed": true,
          "internalType": "address",
          "name": "newOwner",
          "type": "address"
        }
      ],
      "name": "OwnershipTransferred",
      "type": "event"
    },
    {
      "anonymous": false,
      "inputs": [
        {
          "indexed": true,
          "internalType": "address",
          "name": "from",
          "type": "address"
        },
        {
          "indexed": true,
          "internalType": "address",
          "name": "to",
          "type": "address"
        },
        {
          "indexed": true,
          "internalType": "uint256",
          "name": "tokenId",
          "type": "uint256"
        }
      ],
      "name": "Transfer",
      "type": "event"
    },
    {
      "inputs": [
        {
          "internalType": "address",
          "name": "to",
          "type": "address"
        },
        {
          "internalType": "uint256",
          "name": "tokenId",
          "type": "uint256"
        }
      ],
      "name": "approve",
      "outputs": [],
      "stateMutability": "nonpayable",
      "type": "function"
    },
    {
      "inputs": [
        {
          "internalType": "address",
          "name": "owner",
          "type": "address"
        }
      ],
      "name": "balanceOf",
      "outputs": [
        {
          "internalType": "uint256",
          "name": "",
          "type": "uint256"
        }
      ],
      "stateMutability": "view",
      "type": "function"
    },
    {
      "inputs": [
        {
          "internalType": "uint256",
          "name": "tokenId",
          "type": "uint256"
        }
      ],
      "name": "getApproved",
      "outputs": [
        {
          "internalType": "address",
          "name": "",
          "type": "address"
        }
      ],
      "stateMutability": "view",
      "type": "function"
    },
    {
      "inputs": [
        {
          "internalType": "address",
          "name": "owner",
          "type": "address"
        },
        {
          "internalType": "address",
          "name": "operator",
          "type": "address"
        }
      ],
      "name": "isApprovedForAll",
      "outputs": [
        {
          "internalType": "bool",
          "name": "",
          "type": "bool"
        }
      ],
      "stateMutability": "view",
      "type": "function"
    },
    {
      "inputs": [],
      "name": "name",
      "outputs": [
        {
          "internalType": "string",
          "name": "",
          "type": "string"
        }
      ],
      "stateMutability": "view",
      "type": "function"
    },
    {
      "inputs": [],
      "name": "owner",
      "outputs": [
        {
          "internalType": "address",
          "name": "",
          "type": "address"
        }
      ],
      "stateMutability": "view",
      "type": "function"
    },
    {
      "inputs": [
        {
          "internalType": "uint256",
          "name": "tokenId",
          "type": "uint256"
        }
      ],
      "name": "ownerOf",
      "outputs": [
        {
          "internalType": "address",
          "name": "",
          "type": "address"
        }
      ],
      "stateMutability": "view",
      "type": "function"
    },
    {
      "inputs": [],
      "name": "renounceOwnership",
      "outputs": [],
      "stateMutability": "nonpayable",
      "type": "function"
    },
    {
      "inputs": [
        {
          "internalType": "address",
          "name": "from",
          "type": "address"
        },
        {
          "internalType": "address",
          "name": "to",
          "type": "address"
        },
        {
          "internalType": "uint256",
          "name": "tokenId",
          "type": "uint256"
        }
      ],
      "name": "safeTransferFrom",
      "outputs": [],
      "stateMutability": "nonpayable",
      "type": "function"
    },
    {
      "inputs": [
        {
          "internalType": "address",
          "name": "from",
          "type": "address"
        },
        {
          "internalType": "address",
          "name": "to",
          "type": "address"
        },
        {
          "internalType": "uint256",
          "name": "tokenId",
          "type": "uint256"
        },
        {
          "internalType": "bytes",
          "name": "data",
          "type": "bytes"
        }
      ],
      "name": "safeTransferFrom",
      "outputs": [],
      "stateMutability": "nonpayable",
      "type": "function"
    },
    {
      "inputs": [
        {
          "internalType": "address",
          "name": "operator",
          "type": "address"
        },
        {
          "internalType": "bool",
          "name": "approved",
          "type": "bool"
        }
      ],
      "name": "setApprovalForAll",
      "outputs": [],
      "stateMutability": "nonpayable",
      "type": "function"
    },
    {
      "inputs": [
        {
          "internalType": "bytes4",
          "name": "interfaceId",
          "type": "bytes4"
        }
      ],
      "name": "supportsInterface",
      "outputs": [
        {
          "internalType": "bool",
          "name": "",
          "type": "bool"
        }
      ],
      "stateMutability": "view",
      "type": "function"
    },
    {
      "inputs": [],
      "name": "symbol",
      "outputs": [
        {
          "internalType": "string",
          "name": "",
          "type": "string"
        }
      ],
      "stateMutability": "view",
      "type": "function"
    },
    {
      "inputs": [
        {
          "internalType": "uint256",
          "name": "tokenId",
          "type": "uint256"
        }
      ],
      "name": "tokenURI",
      "outputs": [
        {
          "internalType": "string",
          "name": "",
          "type": "string"
        }
      ],
      "stateMutability": "view",
      "type": "function"
    },
    {
      "inputs": [
        {
          "internalType": "address",
          "name": "from",
          "type": "address"
        },
        {
          "internalType": "address",
          "name": "to",
          "type": "address"
        },
        {
          "internalType": "uint256",
          "name": "tokenId",
          "type": "uint256"
        }
      ],
      "name": "transferFrom",
      "outputs": [],
      "stateMutability": "nonpayable",
      "type": "function"
    },
    {
      "inputs": [
        {
          "internalType": "address",
          "name": "newOwner",
          "type": "address"
        }
      ],
      "name": "transferOwnership",
      "outputs": [],
      "stateMutability": "nonpayable",
      "type": "function"
    },
    {
      "inputs": [
        {
          "internalType": "address",
          "name": "player",
          "type": "address"
        },
        {
          "internalType": "string",
          "name": "tokenURI",
          "type": "string"
        }
      ],
      "name": "awardItem",
      "outputs": [
        {
          "internalType": "uint256",
          "name": "",
          "type": "uint256"
        }
      ],
      "stateMutability": "nonpayable",
      "type": "function"
    },
    {
      "inputs": [
        {
          "internalType": "address",
          "name": "to",
          "type": "address"
        },
        {
          "internalType": "string",
          "name": "tokenURI",
          "type": "string"
        }
      ],
      "name": "mintByOwner",
      "outputs": [
        {
          "internalType": "uint256",
          "name": "",
          "type": "uint256"
        }
      ],
      "stateMutability": "nonpayable",
      "type": "function"
    }
  ],
  "bytecode": "0x6080604052600160085534801561001557600080fd5b506040516116f33803806116f383398101604081905261003491610127565b806040518060400160405280600f81526020016e2bb7b9322632b3b2b7322fba3bb79960891b8152506040518060400160405280600281526020016115d360f21b815250816000908161008791906101f8565b50600161009482826101f8565b5050506001600160a01b0381166100c557604051631e4fbdf760e01b81526000600482015260240160405180910390fd5b6100ce816100d5565b50506102b7565b600780546001600160a01b038381166001600160a01b0319831681179093556040519116919082907f8be0079c531659141344cd1fd0a4f28419497f9722a3daafe3b4186f6b6457e090600090a35050565b60006020828403121561013957600080fd5b81516001600160a01b038116811461015057600080fd5b9392505050565b634e487b7160e01b600052604160045260246000fd5b600181811c9082168061018157607f821691505b6020821081036101a157634e487b7160e01b600052602260045260246000fd5b50919050565b601f8211156101f3576000816000526020600020601f850160051c810160208610156101d05750805b601f850160051c820191505b818110156101ef578281556001016101dc565b5050505b505050565b81516001600160401b0381111561021157610211610157565b6102258161021f845461016d565b846101a7565b602080601f83116001811461025a57600084156102425750858301515b600019600386901b1c1916600185901b1785556101ef565b600085815260208120601f198616915b828110156102895788860151825594840194600190910190840161026a565b50858210156102a75787850151600019600388901b60f8161c191681555b5050505050600190811b01905550565b61142d806102c66000396000f3fe608060405234801561001057600080fd5b50600436106101165760003560e01c8063715018a6116100a2578063b88d4fde11610071578063b88d4fde14610239578063c87b56dd1461024c578063cf3783431461025f578063e985e9c514610272578063f2fde38b1461028557600080fd5b8063715018a6146102055780638da5cb5b1461020d57806395d89b411461021e578063a22cb4651461022657600080fd5b806323b872dd116100e957806323b872dd146101985780633f7bb664146101ab57806342842e0e146101cc5780636352211e146101df57806370a08231146101f257600080fd5b806301ffc9a71461011b57806306fdde0314610143578063081812fc14610158578063095ea7b314610183575b600080fd5b61012e610129366004610eee565b610298565b60405190151581526020015b60405180910390f35b61014b6102c3565b60405161013a9190610f5b565b61016b610166366004610f6e565b610355565b6040516001600160a01b03909116815260200161013a565b610196610191366004610fa3565b61037e565b005b6101966101a6366004610fcd565b61038d565b6101be6101b9366004611095565b61041d565b60405190815260200161013a565b6101966101da366004610fcd565b61045b565b61016b6101ed366004610f6e565b61047b565b6101be6102003660046110f7565b610486565b6101966104ce565b6007546001600160a01b031661016b565b61014b6104e2565b610196610234366004611112565b6104f1565b61019661024736600461114e565b6104fc565b61014b61025a366004610f6e565b610513565b6101be61026d366004611095565b610624565b61012e6102803660046111ca565b610634565b6101966102933660046110f7565b610662565b60006001600160e01b03198216632483248360e11b14806102bd57506102bd826106a0565b92915050565b6060600080546102d2906111fd565b80601f01602080910402602001604051908101604052809291908181526020018280546102fe906111fd565b801561034b5780601f106103205761010080835404028352916020019161034b565b820191906000526020600020905b81548152906001019060200180831161032e57829003601f168201915b5050505050905090565b6000610360826106f0565b506000828152600460205260409020546001600160a01b03166102bd565b610389828233610729565b5050565b6001600160a01b0382166103bc57604051633250574960e11b8152600060048201526024015b60405180910390fd5b60006103c9838333610736565b9050836001600160a01b0316816001600160a01b031614610417576040516364283d7b60e01b81526001600160a01b03808616600483015260248201849052821660448201526064016103b3565b50505050565b600061042761082f565b600854610434848261085c565b61043e81846108c1565b6008805490600061044e83611237565b9091555090949350505050565b610476838383604051806020016040528060008152506104fc565b505050565b60006102bd826106f0565b60006001600160a01b0382166104b2576040516322718ad960e21b8152600060048201526024016103b3565b506001600160a01b031660009081526003602052604090205490565b6104d661082f565b6104e06000610911565b565b6060600180546102d2906111fd565b610389338383610963565b61050784848461038d565b61041784848484610a02565b606061051e826106f0565b5060008281526006602052604081208054610538906111fd565b80601f0160208091040260200160405190810160405280929190818152602001828054610564906111fd565b80156105b15780601f10610586576101008083540402835291602001916105b1565b820191906000526020600020905b81548152906001019060200180831161059457829003601f168201915b5050505050905060006105cf60408051602081019091526000815290565b905080516000036105e1575092915050565b8151156106135780826040516020016105fb92919061125e565b60405160208183030381529060405292505050919050565b61061c84610b2b565b949350505050565b600854600090610434848261085c565b6001600160a01b03918216600090815260056020908152604080832093909416825291909152205460ff1690565b61066a61082f565b6001600160a01b03811661069457604051631e4fbdf760e01b8152600060048201526024016103b3565b61069d81610911565b50565b60006001600160e01b031982166380ac58cd60e01b14806106d157506001600160e01b03198216635b5e139f60e01b145b806102bd57506301ffc9a760e01b6001600160e01b03198316146102bd565b6000818152600260205260408120546001600160a01b0316806102bd57604051637e27328960e01b8152600481018490526024016103b3565b6104768383836001610ba0565b6000828152600260205260408120546001600160a01b039081169083161561076357610763818486610ca6565b6001600160a01b038116156107a157610780600085600080610ba0565b6001600160a01b038116600090815260036020526040902080546000190190555b6001600160a01b038516156107d0576001600160a01b0385166000908152600360205260409020805460010190555b60008481526002602052604080822080546001600160a01b0319166001600160a01b0389811691821790925591518793918516917fddf252ad1be2c89b69c2b068fc378daa952ba7f163c4a11628f55a4df523b3ef91a4949350505050565b6007546001600160a01b031633146104e05760405163118cdaa760e01b81523360048201526024016103b3565b6001600160a01b03821661088657604051633250574960e11b8152600060048201526024016103b3565b600061089483836000610736565b90506001600160a01b03811615610476576040516339e3563760e11b8152600060048201526024016103b3565b60008281526006602052604090206108d982826112dd565b506040518281527ff8e1a15aba9398e019f0b49df1a4fde98ee17ae345cb5f6b5e2c27f5033e8ce79060200160405180910390a15050565b600780546001600160a01b038381166001600160a01b0319831681179093556040519116919082907f8be0079c531659141344cd1fd0a4f28419497f9722a3daafe3b4186f6b6457e090600090a35050565b6001600160a01b03821661099557604051630b61174360e31b81526001600160a01b03831660048201526024016103b3565b6001600160a01b03838116600081815260056020908152604080832094871680845294825291829020805460ff191686151590811790915591519182527f17307eab39ab6107e8899845ad3d59bd9653f200f220920489ca2b5937696c31910160405180910390a3505050565b6001600160a01b0383163b1561041757604051630a85bd0160e11b81526001600160a01b0384169063150b7a0290610a4490339088908790879060040161139d565b6020604051808303816000875af1925050508015610a7f575060408051601f3d908101601f19168201909252610a7c918101906113da565b60015b610ae8573d808015610aad576040519150601f19603f3d011682016040523d82523d6000602084013e610ab2565b606091505b508051600003610ae057604051633250574960e11b81526001600160a01b03851660048201526024016103b3565b805181602001fd5b6001600160e01b03198116630a85bd0160e11b14610b2457604051633250574960e11b81526001600160a01b03851660048201526024016103b3565b5050505050565b6060610b36826106f0565b506000610b4e60408051602081019091526000815290565b90506000815111610b6e5760405180602001604052806000815250610b99565b80610b7884610d0a565b604051602001610b8992919061125e565b6040516020818303038152906040525b9392505050565b8080610bb457506001600160a01b03821615155b15610c76576000610bc4846106f0565b90506001600160a01b03831615801590610bf05750826001600160a01b0316816001600160a01b031614155b8015610c035750610c018184610634565b155b15610c2c5760405163a9fbf51f60e01b81526001600160a01b03841660048201526024016103b3565b8115610c745783856001600160a01b0316826001600160a01b03167f8c5be1e5ebec7d5bd14f71427d1e84f3dd0314c0f7b2291e5b200ac8c7c3b92560405160405180910390a45b505b5050600090815260046020526040902080546001600160a01b0319166001600160a01b0392909216919091179055565b610cb1838383610d9d565b610476576001600160a01b038316610cdf57604051637e27328960e01b8152600481018290526024016103b3565b60405163177e802f60e01b81526001600160a01b0383166004820152602481018290526044016103b3565b60606000610d1783610e00565b600101905060008167ffffffffffffffff811115610d3757610d37611009565b6040519080825280601f01601f191660200182016040528015610d61576020820181803683370190505b5090508181016020015b600019016f181899199a1a9b1b9c1cb0b131b232b360811b600a86061a8153600a8504945084610d6b57509392505050565b60006001600160a01b0383161580159061061c5750826001600160a01b0316846001600160a01b03161480610dd75750610dd78484610634565b8061061c5750506000908152600460205260409020546001600160a01b03908116911614919050565b60008072184f03e93ff9f4daa797ed6e38ed64bf6a1f0160401b8310610e3f5772184f03e93ff9f4daa797ed6e38ed64bf6a1f0160401b830492506040015b6d04ee2d6d415b85acef81000000008310610e6b576d04ee2d6d415b85acef8100000000830492506020015b662386f26fc100008310610e8957662386f26fc10000830492506010015b6305f5e1008310610ea1576305f5e100830492506008015b6127108310610eb557612710830492506004015b60648310610ec7576064830492506002015b600a83106102bd5760010192915050565b6001600160e01b03198116811461069d57600080fd5b600060208284031215610f0057600080fd5b8135610b9981610ed8565b60005b83811015610f26578181015183820152602001610f0e565b50506000910152565b60008151808452610f47816020860160208601610f0b565b601f01601f19169290920160200192915050565b602081526000610b996020830184610f2f565b600060208284031215610f8057600080fd5b5035919050565b80356001600160a01b0381168114610f9e57600080fd5b919050565b60008060408385031215610fb657600080fd5b610fbf83610f87565b946020939093013593505050565b600080600060608486031215610fe257600080fd5b610feb84610f87565b9250610ff960208501610f87565b9150604084013590509250925092565b634e487b7160e01b600052604160045260246000fd5b600067ffffffffffffffff8084111561103a5761103a611009565b604051601f8501601f19908116603f0116810190828211818310171561106257611062611009565b8160405280935085815286868601111561107b57600080fd5b858560208301376000602087830101525050509392505050565b600080604083850312156110a857600080fd5b6110b183610f87565b9150602083013567ffffffffffffffff8111156110cd57600080fd5b8301601f810185136110de57600080fd5b6110ed8582356020840161101f565b9150509250929050565b60006020828403121561110957600080fd5b610b9982610f87565b6000806040838503121561112557600080fd5b61112e83610f87565b91506020830135801515811461114357600080fd5b809150509250929050565b6000806000806080858703121561116457600080fd5b61116d85610f87565b935061117b60208601610f87565b925060408501359150606085013567ffffffffffffffff81111561119e57600080fd5b8501601f810187136111af57600080fd5b6111be8782356020840161101f565b91505092959194509250565b600080604083850312156111dd57600080fd5b6111e683610f87565b91506111f460208401610f87565b90509250929050565b600181811c9082168061121157607f821691505b60208210810361123157634e487b7160e01b600052602260045260246000fd5b50919050565b60006001820161125757634e487b7160e01b600052601160045260246000fd5b5060010190565b60008351611270818460208801610f0b565b835190830190611284818360208801610f0b565b01949350505050565b601f821115610476576000816000526020600020601f850160051c810160208610156112b65750805b601f850160051c820191505b818110156112d5578281556001016112c2565b505050505050565b815167ffffffffffffffff8111156112f7576112f7611009565b61130b8161130584546111fd565b8461128d565b602080601f83116001811461134057600084156113285750858301515b600019600386901b1c1916600185901b1785556112d5565b600085815260208120601f198616915b8281101561136f57888601518255948401946001909101908401611350565b508582101561138d5787850151600019600388901b60f8161c191681555b5050505050600190811b01905550565b6001600160a01b03858116825284166020820152604081018390526080606082018190526000906113d090830184610f2f565b9695505050505050565b6000602082840312156113ec57600080fd5b8151610b9981610ed856fea26469706673582212204899fe1c0221f575d9496af258b58dddc2c7db0a45d0704a2476e5f8b5d105d464736f6c63430008190033",
  "immutableReferences": {},
  "source": "// SPDX-License-Identifier: MIT\npragma solidity ^0.8.25;\n\nimport \"@openzeppelin/contracts/token/ERC721/extensions/ERC721URIStorage.sol\";\nimport \"@openzeppelin/contracts/access/Ownable.sol\";\n\ncontract WordLegendNFT_two2 is ERC721URIStorage, Ownable {\n    uint256 private _nextTokenId = 1;\n\n    constructor(\n        address initialOwner\n    ) ERC721(\"WordLegend_two2\", \"WL\") Ownable(initialOwner) {}\n\n    function awardItem(\n        address player,\n        string memory tokenURI\n    ) public returns (uint256) {\n        uint256 tokenId = _nextTokenId;\n        _mint(player, tokenId);\n        _setTokenURI(tokenId, tokenURI);\n        _nextTokenId++;\n\n        return tokenId;\n    }\n\n    function mintByOwner(\n        address to,\n        string memory tokenURI\n    ) public onlyOwner returns (uint256) {\n        uint256 tokenId = _nextTokenId;\n        _mint(to, tokenId);\n        _setTokenURI(tokenId, tokenURI);\n        _nextTokenId++;\n\n        return tokenId;\n    }\n}\n",
  "sourcePath": "/Users/mac/Desktop/ProjectFinal/contracts/WordLegendNFT.sol",
  "compiler": {
    "name": "solc",
    "version": "0.8.25+commit.b61c2a91.Emscripten.clang"
  },
  "schemaVersion": "3.4.16",
  "updatedAt": "2024-07-01T19:32:50.804Z",
  "devdoc": {
    "errors": {
      "ERC721IncorrectOwner(address,uint256,address)": [
        {
          "details": "Indicates an error related to the ownership over a particular token. Used in transfers.",
          "params": {
            "owner": "Address of the current owner of a token.",
            "sender": "Address whose tokens are being transferred.",
            "tokenId": "Identifier number of a token."
          }
        }
      ],
      "ERC721InsufficientApproval(address,uint256)": [
        {
          "details": "Indicates a failure with the `operator`s approval. Used in transfers.",
          "params": {
            "operator": "Address that may be allowed to operate on tokens without being their owner.",
            "tokenId": "Identifier number of a token."
          }
        }
      ],
      "ERC721InvalidApprover(address)": [
        {
          "details": "Indicates a failure with the `approver` of a token to be approved. Used in approvals.",
          "params": {
            "approver": "Address initiating an approval operation."
          }
        }
      ],
      "ERC721InvalidOperator(address)": [
        {
          "details": "Indicates a failure with the `operator` to be approved. Used in approvals.",
          "params": {
            "operator": "Address that may be allowed to operate on tokens without being their owner."
          }
        }
      ],
      "ERC721InvalidOwner(address)": [
        {
          "details": "Indicates that an address can't be an owner. For example, `address(0)` is a forbidden owner in EIP-20. Used in balance queries.",
          "params": {
            "owner": "Address of the current owner of a token."
          }
        }
      ],
      "ERC721InvalidReceiver(address)": [
        {
          "details": "Indicates a failure with the token `receiver`. Used in transfers.",
          "params": {
            "receiver": "Address to which tokens are being transferred."
          }
        }
      ],
      "ERC721InvalidSender(address)": [
        {
          "details": "Indicates a failure with the token `sender`. Used in transfers.",
          "params": {
            "sender": "Address whose tokens are being transferred."
          }
        }
      ],
      "ERC721NonexistentToken(uint256)": [
        {
          "details": "Indicates a `tokenId` whose `owner` is the zero address.",
          "params": {
            "tokenId": "Identifier number of a token."
          }
        }
      ],
      "OwnableInvalidOwner(address)": [
        {
          "details": "The owner is not a valid owner account. (eg. `address(0)`)"
        }
      ],
      "OwnableUnauthorizedAccount(address)": [
        {
          "details": "The caller account is not authorized to perform an operation."
        }
      ]
    },
    "events": {
      "Approval(address,address,uint256)": {
        "details": "Emitted when `owner` enables `approved` to manage the `tokenId` token."
      },
      "ApprovalForAll(address,address,bool)": {
        "details": "Emitted when `owner` enables or disables (`approved`) `operator` to manage all of its assets."
      },
      "BatchMetadataUpdate(uint256,uint256)": {
        "details": "This event emits when the metadata of a range of tokens is changed. So that the third-party platforms such as NFT market could timely update the images and related attributes of the NFTs."
      },
      "MetadataUpdate(uint256)": {
        "details": "This event emits when the metadata of a token is changed. So that the third-party platforms such as NFT market could timely update the images and related attributes of the NFT."
      },
      "Transfer(address,address,uint256)": {
        "details": "Emitted when `tokenId` token is transferred from `from` to `to`."
      }
    },
    "kind": "dev",
    "methods": {
      "approve(address,uint256)": {
        "details": "See {IERC721-approve}."
      },
      "balanceOf(address)": {
        "details": "See {IERC721-balanceOf}."
      },
      "getApproved(uint256)": {
        "details": "See {IERC721-getApproved}."
      },
      "isApprovedForAll(address,address)": {
        "details": "See {IERC721-isApprovedForAll}."
      },
      "name()": {
        "details": "See {IERC721Metadata-name}."
      },
      "owner()": {
        "details": "Returns the address of the current owner."
      },
      "ownerOf(uint256)": {
        "details": "See {IERC721-ownerOf}."
      },
      "renounceOwnership()": {
        "details": "Leaves the contract without owner. It will not be possible to call `onlyOwner` functions. Can only be called by the current owner. NOTE: Renouncing ownership will leave the contract without an owner, thereby disabling any functionality that is only available to the owner."
      },
      "safeTransferFrom(address,address,uint256)": {
        "details": "See {IERC721-safeTransferFrom}."
      },
      "safeTransferFrom(address,address,uint256,bytes)": {
        "details": "See {IERC721-safeTransferFrom}."
      },
      "setApprovalForAll(address,bool)": {
        "details": "See {IERC721-setApprovalForAll}."
      },
      "supportsInterface(bytes4)": {
        "details": "See {IERC165-supportsInterface}"
      },
      "symbol()": {
        "details": "See {IERC721Metadata-symbol}."
      },
      "tokenURI(uint256)": {
        "details": "See {IERC721Metadata-tokenURI}."
      },
      "transferFrom(address,address,uint256)": {
        "details": "See {IERC721-transferFrom}."
      },
      "transferOwnership(address)": {
        "details": "Transfers ownership of the contract to a new account (`newOwner`). Can only be called by the current owner."
      }
    },
    "version": 1
  },
  "userdoc": {
    "kind": "user",
    "methods": {},
    "version": 1
  }
}